:020000040800F2
:1000000000000220F90E00086D0E0008730E0008B3
:10001000790E00087F0E0008850E00080000000021
:100020000000000000000000000000008B0E00082F
:10003000990E000800000000A70E0008B50E000889
:10004000490F0008490F0008490F0008490F000830
:10005000490F0008490F0008490F0008490F000820
:10006000490F0008490F0008490F0008490F000810
:10007000490F0008490F0008490F0008490F000800
:10008000490F0008490F0008490F00080000000050
:10009000000000000000000000000000490F000800
:1000A000490F0008490F0008490F0008490F0008D0
:1000B000490F0008490F0008490F0008490F0008C0
:1000C000490F0008490F0008490F0008490F0008B0
:1000D000490F0008490F0008C10E00080000000089
:1000E000490F0008490F0008490F000800000000F0
:1000F000000000000000000000000000490F0008A0
:1001000000000000490F0008490F0008490F0008CF
:1001100000000000000000000000000000000000DF
:10012000490F0008490F0008490F0008490F00084F
:10013000490F00080000000000000000000000005F
:10014000000000000000000000000000490F00084F
:10015000490F0008490F0008490F0008490F00081F
:10016000490F0008490F00080000000000000000CF
:10017000000000000000000000000000000000007F
:1001800000000000490F000800000000000000000F
:08019000490F0008490F0008A7
:1001980010B5054C237833B9044B13B10448AFF3B9
:1001A80000800123237010BD0C0000200000000017
:1001B8004040000808B5034B1BB103490348AFF39F
:1001C800008008BD0000000010000020404000082A
:1001D80053B94AB9002908BF00281CBF4FF0FF31A6
:1001E8004FF0FF3000F06EB9ADF1080C6DE904CEA8
:1001F80000F006F8DDF804E0DDE9022304B07047FA
:100208002DE9F047089D04468C46002B40F083807A
:100218008A42174647D9B2FA82F242B1C2F12000A7
:1002280024FA00F09140974040EA010C94404FEACC
:100238001748230CBCFBF8F61FFA87FE08FB16C10B
:1002480043EA014306FB0EF1994209D9FB1806F16E
:10025800FF3080F01981994240F21681023E3B44FA
:100268005B1AA4B2B3FBF8F008FB103344EA03446A
:1002780000FB0EFEA64509D93C1900F1FF3380F0BA
:100288000581A64540F2028102383C4440EA064016
:10029800A4EB0E0400261DB1D4400023C5E9004399
:1002A8003146BDE8F08702B9FFDEB2FA82F2002AD1
:1002B80050D1CB1B4FEA174E1FFA87F80126B3FB24
:1002C800FEFC210C0EFB1C3341EA034108FB0CF336
:1002D8008B4207D979180CF1FF3002D28B4200F219
:1002E800E9808446C91AA3B2B1FBFEF00EFB1011D7
:1002F80043EA014408FB00F8A04507D93C1900F17E
:10030800FF3302D2A04500F2D9801846A4EB0804B6
:1003180040EA0C40BFE78B4209D9002D00F0B180BC
:100328000026C5E9000130463146BDE8F087B3FA3A
:1003380083F6002E4AD18B4202D3824200F2B88063
:10034800841A61EB030101208C46002DA8D0C5E971
:10035800004CA5E7C2F1200320FA03F6974001FA02
:1003680002F04FEA174ED9403043030CB1FBFEF6BA
:100378001FFA87F80EFB161143EA014306FB08F142
:10038800994204FA02F409D9FB1806F1FF3C80F0FF
:100398008D80994240F28A80023E3B445B1A81B2CA
:1003A800B3FBFEF00EFB103341EA034100FB08F3F8
:1003B8008B4207D9791800F1FF3C73D28B4271D96F
:1003C80002383944CB1A40EA064678E7C6F1200CD1
:1003D80003FA06F422FA0CF31C4320FA0CF701FA8C
:1003E80006F34FEA144E21FA0CF11F433B0CB1FB04
:1003F800FEF91FFA84F80EFB191143EA014109FBC3
:1004080008FA8A4502FA06F200FA06F308D96118D2
:1004180009F1FF3048D28A4546D9A9F10209214499
:10042800A1EB0A01BFB2B1FBFEF00EFB101147EAC7
:10043800014700FB08F8B84507D9E71900F1FF3173
:100448002ED2B8452CD90238274440EA0940A7EBF8
:100458000807A0FB02894F45C64649461AD317D05C
:100468005DB1B3EB0E0267EB010707FA0CFCF24033
:100478004CEA0202F740C5E9002700263146BDE8EC
:10048800F0872E4628460BE70646E9E61846FDE6BD
:100498004345E5D2B8EB020E69EB04010138DFE70A
:1004A8000846D2E760468DE78146B9E7664675E7B4
:1004B80030464AE7ACF1020C394413E702383C44B1
:1004C80024E700BF704700BF80B586B002AF03467F
:1004D800FB71FB7923F00F03FB73FB791B01BB73E3
:1004E800FB7B43F00C03DBB23B72FB7B43F008035E
:1004F800DBB27B72BB7B43F00C03DBB2BB72BB7B12
:1005080043F00803DBB2FB7207F10802642300938F
:1005180004234E21034801F009FE00BF1037BD46F1
:1005280080BD00BF2800002080B586B002AF03461A
:10053800FB71FB7923F00F03FB73FB791B01BB7382
:10054800FB7B43F00D03DBB23B72FB7B43F00903FB
:10055800DBB27B72BB7B43F00D03DBB2BB72BB7BB0
:1005680043F00903DBB2FB7207F10802642300932E
:1005780004234E21034801F0D9FD00BF1037BD46C2
:1005880080BD00BF2800002080B582B000AF802069
:10059800FFF79AFF00237B6005E02020FFF7C4FFE8
:1005A8007B6801337B607B68452BF6DD00BF00BFAD
:1005B8000837BD4680BD80B582B000AF786039602D
:1005C8007B68002B03D07B68012B05D009E03B68D2
:1005D80043F080033B6004E03B6843F0C0033B60AA
:1005E80000BF3B68DBB21846FFF76EFF00BF083755
:1005F800BD4680BD80B500AF322000F015FD30202B
:10060800FFF762FF052000F00FFD3020FFF75CFFC9
:10061800012000F009FD3020FFF756FF0A2000F006
:1006280003FD2020FFF750FF0A2000F0FDFC2820E2
:10063800FFF74AFF012000F0F7FC0820FFF744FF0E
:10064800012000F0F1FC0120FFF73EFF012000F03F
:10065800EBFC012000F0E8FC0620FFF735FF012045
:1006680000F0E2FC0C20FFF72FFF00BF80BD80B533
:1006780082B000AF786006E07B685A1C7A601B780D
:100688001846FFF751FF7B681B78002BF4D100BF99
:1006980000BF0837BD4680BD80B584B000AF3B467B
:1006A80000221A605A609A60DA6000233B600123D6
:1006B8007B600023BB603B461946064800F09CFE61
:1006C8000346002B01D000F0C3FA00BF1037BD4627
:1006D80080BD00BF7C00002080B584B000AF3B46E1
:1006E80000221A605A609A60DA6001233B60012395
:1006F8007B603B461946064800F07EFE0346002B09
:1007080001D000F0A5FA00BF1037BD4680BD00BF7C
:100718007C00002080B584B000AF354A3B4607CA4C
:1007280003C31A8000F00EFC00F06CF800F06CF9BE
:1007380000F012F900F0CEF800F03CF9FFF724FFC2
:10074800FFF758FF3946642304222A4802F01DFDAA
:100758003B78312B45D100210020FFF72CFF26489C
:10076800FFF785FF00210120FFF725FF2348FFF74A
:100778007EFFFFF791FF224800F0BEFC642120486D
:1007880000F0A1FD1E4800F029FE0346FB811C482D
:1007980000F066FD07210020FFF70DFFFB891846D2
:1007A80000F068F9FA2000F03FFCFFF795FF1448C5
:1007B80000F0A2FC6421124800F085FD104800F00A
:1007C8000DFE0346BB810E4800F04AFD07210120BB
:1007D800FFF7F1FEBB89184600F04CF9FA2000F04B
:1007E80023FC3B78302BADD1FFF7CEFEAAE700BF44
:1007F80068400008C4000020584000086040000815
:100808007C00002080B594B000AF07F120033022AF
:100818000021184603F008FC07F10C0300221A60B7
:100828005A609A60DA601A610023BB60274B1B6C20
:10083800264A43F080531364244B1B6C03F0805307
:10084800BB60BB6800237B60214B1B68204A43F4D4
:10085800404313601E4B1B6803F440437B607B6876
:1008680002233B620123FB6210233B630223BB6329
:100878000023FB6308233B6448237B640223BB6497
:100888000423FB6407F12003184601F057FF0346D1
:10089800002B01D000F0DCF90F23FB6002233B6141
:1008A80000237B614FF48053BB610023FB6107F198
:1008B8000C030221184602F0B9F90346002B01D0B7
:1008C80000F0C6F900BF5037BD4680BD0038024071
:1008D8000070004080B584B000AF3B4600221A602B
:1008E8005A609A60DA60194B194A1A60174B00224D
:1008F8005A60164B00229A60144B01221A61134B5E
:1009080001221A76114B002283F820200F4B002277
:10091800DA620E4B0F4A9A620C4B0022DA600B4BDC
:100928000122DA61094B002283F83020074B0122AB
:100938005A61064800F09CFB0346002B01D000F0EA
:1009480087F900BF1037BD4680BD00BF7C0000207E
:10095800002001400100000F80B500AF124B134A80
:100968001A60114B124A5A600F4B00229A600E4BC4
:100978000022DA600C4B4FF480421A610A4B0022C5
:100988005A61094B00229A61074B0022DA61064B33
:1009980000221A62044801F085FA0346002B01D0B0
:1009A80000F056F900BF80BD280000200054004028
:1009B800A086010080B500AF114B124A1A60104B97
:1009C8004FF416525A600E4B00229A600C4B0022CC
:1009D800DA600B4B00221A61094B0C225A61084B52
:1009E80000229A61064B0022DA61054802F0EEFA0D
:1009F8000346002B01D000F02BF900BF80BD00BFDB
:100A0800C40000200044004080B485B000AF00233B
:100A1800FB60174B1B6B164A43F080031363144BA0
:100A28001B6B03F08003FB60FB680023BB60104B6B
:100A38001B6B0F4A43F0010313630D4B1B6B03F051
:100A48000103BB60BB6800237B60094B1B6B084A32
:100A580043F002031363064B1B6B03F002037B6036
:100A68007B6800BF1437BD465DF8047B704700BF44
:100A78000038024080B584B000AF0346FB800023F5
:100A8800FB60FB88174A02FB03F3174A82FB031239
:100A98001A44D212DB17D31AFB60F968134BA3FB75
:100AA8000123DA0813469B0013445B00CA1A042A80
:100AB80007D9FB680A330D4AA2FB0323DB08FB6056
:100AC80005E0FB68094AA2FB0323DB08FB60FB88FF
:100AD800184600F00DF8F86800F050F800BF10371D
:100AE800BD4680BDE093040081000880CDCCCCCC0D
:100AF80080B584B000AF78601D4A07F1080392E81A
:100B0800030018600433198002330A0C1A70032397
:100B1800FB731BE07968174BA3FB0123DA08134624
:100B28009B0013445B00CA1AD2B2FB7B3032D2B2AC
:100B380007F110010B4403F8082C7B680D4AA2FB4F
:100B48000323DB087B60FB7B013BFB737B68002B8B
:100B5800E0D107F108014FF6FF730622064802F0BC
:100B680082FA012000F060FA00BF1037BD4680BD50
:100B780074400008CDCCCCCCC400002080B586B031
:100B880000AF7860304A07F10C0307CA03C31A7034
:100B98000523FB7528E079682C4BA3FB0123DA08B1
:100BA80013469B0013445B00CA1AD2B2FB7D303255
:100BB800D2B207F118010B4403F80C2C7B68234AC6
:100BC800A2FB0323DB087B60FB7D013BFB75FB7D00
:100BD800032B09D1FB7D07F1180213442E2203F8D9
:100BE8000C2CFB7D013BFB757B68002BD3D179680E
:100BF800164BA3FB0123DA0813469B0013445B0042
:100C0800CA1AD2B2FB7D3032D2B207F118010B44B6
:100C180003F80C2C0023FB750BE0FB7D07F1180291
:100C2800134413F80C3C1846FFF77EFCFB7D013398
:100C3800FB75FB7D052BF0D9012000F0F5F900BF0D
:100C48001837BD4680BD00BF7C400008CDCCCCCC59
:100C580080B400AF72B600BFFEE7000080B483B076
:100C680000AF00237B60104B5B6C0F4A43F480435A
:100C780053640D4B5B6C03F480437B607B680023FB
:100C88003B60094B1B6C084A43F080531364064BC6
:100C98001B6C03F080533B603B6800BF0C37BD46BC
:100CA8005DF8047B704700BF0038024080B58AB009
:100CB80000AF786007F1140300221A605A609A6046
:100CC800DA601A617B681B68174A934227D10023B0
:100CD8003B61164B5B6C154A43F480735364134BAA
:100CE8005B6C03F480733B613B690023FB600F4B33
:100CF8001B6B0E4A43F0010313630C4B1B6B03F091
:100D08000103FB60FB6803237B610323BB610023B2
:100D1800FB6107F114031946054800F03FFF00BFC7
:100D28002837BD4680BD00BF002001400038024082
:100D38000000024080B58AB000AF786007F1140364
:100D480000221A605A609A60DA601A617B681B6830
:100D5800194A93422CD100233B61184B1B6B174A4D
:100D680043F002031363154B1B6B03F002033B6153
:100D78003B694FF440737B611223BB610023FB6125
:100D880003233B6204237B6207F1140319460C48D2
:100D980000F004FF0023FB60084B1B6C074A43F478
:100DA80000131364054B1B6C03F40013FB60FB6812
:100DB80000BF2837BD4680BD0054004000380240BF
:100DC8000004024080B58AB000AF786007F11403D0
:100DD80000221A605A609A60DA601A617B681B68A0
:100DE8001D4A934233D100233B611C4B1B6C1B4AA9
:100DF80043F400331364194B1B6C03F400333B6159
:100E08003B690023FB60154B1B6B144A43F001033D
:100E18001363124B1B6B03F00103FB60FB680C238D
:100E28007B610223BB610023FB6103233B62072331
:100E38007B6207F114031946094800F0AFFE00224F
:100E48000021262000F0E1FD262000F0FAFD00BF79
:100E58002837BD4680BD00BF00440040003802402E
:100E68000000024080B400AFFEE780B400AFFEE7A8
:100E780080B400AFFEE780B400AFFEE780B400AFF7
:100E8800FEE780B400AF00BFBD465DF8047B704745
:100E980080B400AF00BFBD465DF8047B704780B4E6
:100EA80000AF00BFBD465DF8047B704780B500AF5A
:100EB80000F09AF800BF80BD80B500AF024802F08C
:100EC80007FA00BF80BD00BFC400002080B400AF97
:100ED800064BD3F88830054A43F47003C2F88830CB
:100EE80000BFBD465DF8047B704700BF00ED00E021
:100EF800DFF834D00D480E490E4A002302E0D458DA
:100F0800C4500433C4188C42F9D30B4A0B4C002349
:100F180001E013600432A242FBD3FFF7D7FF03F0CE
:100F28005FF8FFF7F7FB7047000002200000002081
:100F38000C000020B04000080C0000200C0100202C
:100F4800FEE7000080B500AF0E4B1B680D4A43F466
:100F5800007313600B4B1B680A4A43F480631360E9
:100F6800084B1B68074A43F480731360032000F0A2
:100F780041FD0F2000F008F8FFF770FE0023184627
:100F880080BD00BF003C024080B582B000AF7860F1
:100F9800124B1A68124B1B7819464FF47A73B3FB3D
:100FA800F1F3B2FBF3F3184600F059FD0346002BAA
:100FB80001D001230EE07B680F2B0AD80022796844
:100FC8004FF0FF3000F021FD064A7B6813600023D4
:100FD80000E0012318460837BD4680BD0000002008
:100FE800080000200400002080B400AF064B1B78E6
:100FF8001A46064B1B681344044A136000BFBD46DB
:101008005DF8047B704700BF08000020080100203D
:1010180080B400AF034B1B681846BD465DF8047BDF
:10102800704700BF0801002080B584B000AF786029
:10103800FFF7EEFFB8607B68FB60FB68B3F1FF3F2A
:1010480005D00A4B1B781A46FB681344FB6000BFA7
:10105800FFF7DEFF0246BB68D31AFA689A42F7D850
:1010680000BF00BF1037BD4680BD00BF080000208C
:1010780080B584B000AF78600023FB737B68002BD9
:1010880001D1012333E07B681B6C002B09D1786800
:10109800FFF70CFE7B6800225A647B68002283F805
:1010A8003C207B681B6C03F01003002B18D17B6875
:1010B8001B6C23F4885323F0020343F002027B687D
:1010C8001A64786800F0CAFA7B6800225A647B6860
:1010D8001B6C23F0030343F001027B681A6401E0F0
:1010E8000123FB737B68002283F83C20FB7B1846B6
:1010F8001037BD4680BD000080B485B000AF786071
:101108000023BB607B6893F83C30012B01D102239C
:1011180097E07B68012283F83C207B681B689B680A
:1011280003F00103012B18D07B681B689A687B6861
:101138001B6842F001029A60454B1B68454AA2FBB6
:1011480003239A0C13465B001344BB6002E0BB68A0
:10115800013BBB60BB68002BF9D17B681B689B68AF
:1011680003F00103012B5FD17B681B6C23F4E06360
:1011780023F0010343F480727B681A647B681B6860
:101188005B6803F48063002B07D07B681B6C23F437
:10119800405343F480527B681A647B681B6C03F4E9
:1011A8008053B3F5805F06D17B685B6C23F0060241
:1011B8007B685A6402E07B6800225A647B680022DC
:1011C80083F83C20244BFB607B681B686FF022028D
:1011D8001A60FB685B6803F01F03002B0FD17B6864
:1011E8001B689B6803F04053002B29D17B681B6860
:1011F8009A687B681B6842F080429A6020E07B68AE
:101208001B68164A93421BD17B681B689B6803F0D6
:101218004053002B14D17B681B689A687B681B6855
:1012280042F080429A600BE07B681B6C43F010022E
:101238007B681A647B685B6C43F001027B685A64C4
:10124800002318461437BD465DF8047B704700BF7D
:101258000000002083DE1B430023014000200140E2
:1012680080B483B000AF78607B6893F83C30012B82
:1012780001D1022321E07B68012283F83C207B68AE
:101288001B689A687B681B6822F001029A607B6879
:101298001B689B6803F00103002B09D17B681B6C5A
:1012A80023F4885323F0010343F001027B681A6496
:1012B8007B68002283F83C20002318460C37BD4683
:1012C8005DF8047B704780B584B000AF7860396002
:1012D8000023FB607B681B689B6803F48063B3F59D
:1012E800806F13D17B681B689B6803F48073B3F528
:1012F800807F0BD17B681B6C43F020027B681A64EB
:101308007B68002283F83C20012363E0FFF780FE1E
:10131800F86021E03B68B3F1FF3F1DD03B68002B2C
:1013280007D0FFF775FE0246FB68D31A3A689A425F
:1013380012D27B681B681B6803F00203022B0BD0D8
:101348007B681B6C43F004027B681A647B6800228C
:1013580083F83C2003233DE07B681B681B6803F08F
:101368000203022BD6D17B681B686FF012021A6049
:101378007B681B6C43F400727B681A647B681B688B
:101388009B6803F04053002B23D17B681B7E002B06
:101398001FD17B681B68DB6A03F47003002B06D03F
:1013A8007B681B689B6803F48063002B11D17B6802
:1013B8001B6C23F480727B681A647B681B6C03F4D3
:1013C8008053002B05D17B681B6C43F001027B68BE
:1013D8001A64002318461037BD4680BD80B483B018
:1013E80000AF78607B681B68DB6C18460C37BD461D
:1013F8005DF8047B7047000080B485B000AF78606A
:1014080039600023BB607B6893F83C30012B01D125
:10141800022313E17B68012283F83C203B681B68A8
:10142800092B25D97B681B68D9683B681B689BB268
:101438001A4613465B0013441E3B072202FA03F3C5
:10144800DA437B681B680A40DA607B681B68D968E6
:101458003B689A683B681B689BB2184603465B006A
:1014680003441E3B9A407B681B680A43DA6022E00B
:101478007B681B6819693B681B689BB21A46134650
:101488005B001344072202FA03F3DA437B681B6804
:101498000A401A617B681B6819693B689A683B684F
:1014A8001B689BB2184603465B0003449A407B685E
:1014B8001B680A431A613B685B68062B24D87B6863
:1014C8001B68596B3B685A6813469B001344053BDD
:1014D8001F2202FA03F3DA437B681B680A405A6347
:1014E8007B681B68596B3B681B689BB218463B6856
:1014F8005A6813469B001344053B00FA03F27B68C5
:101508001B680A435A634CE03B685B680C2B24D881
:101518007B681B68196B3B685A6813469B00134429
:10152800233B1F2202FA03F3DA437B681B680A4055
:101538001A637B681B68196B3B681B689BB218466B
:101548003B685A6813469B001344233B00FA03F296
:101558007B681B680A431A6323E07B681B68D96AA7
:101568003B685A6813469B001344413B1F2202FA0A
:1015780003F3DA437B681B680A40DA627B681B68FE
:10158800D96A3B681B689BB218463B685A68134681
:101598009B001344413B00FA03F27B681B680A4333
:1015A800DA62294BFB607B681B68284A93420FD19B
:1015B8003B681B68122B0BD1FB685B6823F40002A5
:1015C800FB685A60FB685B6843F48002FB685A60FA
:1015D8007B681B681D4A93422BD13B681B681C4AD9
:1015E800934203D03B681B68112B22D1FB685B68D0
:1015F80023F48002FB685A60FB685B6843F40002CE
:10160800FB685A603B681B68114A934211D1114B21
:101618001B68114AA2FB03239A0C13469B00134430
:101628005B00BB6002E0BB68013BBB60BB68002B92
:10163800F9D17B68002283F83C2000231846143730
:10164800BD465DF8047B704700230140002001403F
:10165800120000100000002083DE1B4380B485B018
:1016680000AF7860794BFB60FB685B6823F440321D
:10167800FB685A60FB685A687B685B681A43FB68BA
:101688005A607B681B685A687B681B6822F4807202
:101698005A607B681B6859687B681B691A027B68FB
:1016A8001B680A435A607B681B685A687B681B681A
:1016B80022F040725A607B681B6859687B689A6898
:1016C8007B681B680A435A607B681B689A687B685A
:1016D8001B6822F400629A607B681B6899687B68C3
:1016E800DA687B681B680A439A607B689B6A584A79
:1016F800934222D07B681B689A687B681B6822F03B
:1017080070629A607B681B6899687B689A6A7B68D4
:101718001B680A439A607B681B689A687B681B6829
:1017280022F040529A607B681B6899687B68DA6A85
:101738007B681B680A439A600FE07B681B689A689D
:101748007B681B6822F070629A607B681B689A68E5
:101758007B681B6822F040529A607B681B689A6815
:101768007B681B6822F002029A607B681B68996894
:101778007B681B7E5A007B681B680A439A607B68FB
:1017880093F82030002B1BD07B681B685A687B6855
:101798001B6842F400625A607B681B685A687B6861
:1017A8001B6822F460425A607B681B6859687B6832
:1017B8005B6A013B5A037B681B680A435A6007E06F
:1017C8007B681B685A687B681B6822F400625A6051
:1017D8007B681B68DA6A7B681B6822F47002DA622D
:1017E8007B681B68D96A7B68DB69013B1A057B68E3
:1017F8001B680A43DA627B681B689A687B681B6807
:1018080022F400729A607B681B6899687B6893F879
:1018180030305A027B681B680A439A607B681B68F1
:101828009A687B681B6822F480629A607B681B68F0
:1018380099687B685B699A027B681B680A439A60AF
:1018480000BF1437BD465DF8047B70470023014094
:101858000100000F80B485B000AF78607B6803F0AA
:101868000703FB600C4BDB68BB60BA684FF6FF03ED
:101878001340BB60FB681A02BB68134343F0BF63A5
:1018880043F40033BB60044ABB68D36000BF14371D
:10189800BD465DF8047B704700ED00E080B400AF02
:1018A800044BDB681B0A03F007031846BD465DF8C6
:1018B800047B704700ED00E080B483B000AF0346BE
:1018C800FB7197F90730002B0BDBFB7903F01F0244
:1018D800074997F907305B09012000FA02F241F83D
:1018E800232000BF0C37BD465DF8047B704700BF5E
:1018F80000E100E080B483B000AF03463960FB71BB
:1019080097F90730002B0ADB3B68DAB20C4997F9E4
:1019180007301201D2B20B4483F800230AE03B6877
:10192800DAB20849FB7903F00F03043B1201D2B283
:101938000B441A7600BF0C37BD465DF8047B704730
:1019480000E100E000ED00E080B489B000AFF8608D
:10195800B9607A60FB6803F00703FB61FB69C3F1B8
:101968000703042B28BF0423BB61FB690433062B40
:1019780002D9FB69033B00E000237B614FF0FF3293
:10198800BB6902FA03F3DA43BB681A407B699A40E1
:101998004FF0FF317B6901FA03F3D9437B680B40B1
:1019A800134318462437BD465DF8047B7047000092
:1019B80080B582B000AF78607B68013BB3F1807F6F
:1019C80001D301230FE00A4A7B68013B53600F21D2
:1019D8004FF0FF30FFF78EFF054B00229A60044B53
:1019E80007221A60002318460837BD4680BD00BF8D
:1019F80010E000E080B582B000AF78607868FFF74B
:101A080029FF00BF0837BD4680BD80B586B000AF4E
:101A18000346B9607A60FB7300237B61FFF73EFFE2
:101A280078617A68B9687869FFF78EFF024697F996
:101A38000F3011461846FFF75DFF00BF1837BD4647
:101A480080BD80B582B000AF0346FB7197F90730BF
:101A58001846FFF731FF00BF0837BD4680BD80B587
:101A680082B000AF78607868FFF7A2FF0346184697
:101A78000837BD4680BD80B584B000AF78607B680C
:101A88009B6DFB60FFF7C4FAB8607B6893F835304C
:101A9800DBB2022B08D07B6880225A657B68002263
:101AA80083F83420012352E07B681B681A687B683E
:101AB8001B6822F016021A607B681B685A697B68EB
:101AC8001B6822F080025A617B681B6C002B03D1D3
:101AD8007B689B6C002B07D07B681B681A687B6847
:101AE8001B6822F008021A607B681B681A687B680A
:101AF8001B6822F001021A6013E0FFF789FA024618
:101B0800BB68D31A052B0CD97B6820225A657B68E1
:101B1800032283F835207B68002283F834200323CE
:101B280015E07B681B681B6803F00103002BE4D1F8
:101B38007B68DB6D3F229A40FB689A607B680122D4
:101B480083F835207B68002283F834200023184668
:101B58001037BD4680BD80B483B000AF78607B6825
:101B680093F83530DBB2022B04D07B6880225A65AB
:101B780001230CE07B68052283F835207B681B680D
:101B88001A687B681B6822F001021A600023184655
:101B98000C37BD465DF8047B7047000080B489B0FF
:101BA80000AF7860396000237B6100233B6100232C
:101BB800BB610023FB6159E10122FB6902FA03F3CF
:101BC8007B613B681B687A6913403B613A697B69B2
:101BD8009A4240F048813B685B6803F00303012B9D
:101BE80005D03B685B6803F00303022B30D17B68A8
:101BF8009B68BB61FB695B00032202FA03F3DB43CA
:101C0800BA691340BB613B68DA68FB695B0002FA9A
:101C180003F3BA691343BB617B68BA699A607B684E
:101C28005B68BB610122FB6902FA03F3DB43BA6913
:101C38001340BB613B685B681B0903F00102FB6949
:101C480002FA03F3BA691343BB617B68BA695A6045
:101C58003B685B6803F00303032B17D07B68DB68E2
:101C6800BB61FB695B00032202FA03F3DB43BA6939
:101C78001340BB613B689A68FB695B0002FA03F397
:101C8800BA691343BB617B68BA69DA603B685B6811
:101C980003F00303022B23D1FB69DA087B680832BF
:101CA80053F82230BB61FB6903F007039B000F2246
:101CB80002FA03F3DB43BA691340BB613B681A6954
:101CC800FB6903F007039B0002FA03F3BA691343A5
:101CD800BB61FB69DA087B680832B96943F82210EE
:101CE8007B681B68BB61FB695B00032202FA03F394
:101CF800DB43BA691340BB613B685B6803F00302CE
:101D0800FB695B0002FA03F3BA691343BB617B68A2
:101D1800BA691A603B685B6803F44033002B00F033
:101D2800A2800023FB60574B5B6C564A43F4804308
:101D38005364544B5B6C03F48043FB60FB68524A6A
:101D4800FB699B08023352F82330BB61FB6903F03F
:101D580003039B000F2202FA03F3DB43BA69134023
:101D6800BB617B68494A934219D07B68484A9342D1
:101D780013D07B68474A93420DD07B68464A93420A
:101D880007D07B68454A934201D1042308E0072322
:101D980006E0032304E0022302E0012300E000231D
:101DA800FA6902F0030292009340BA691343BB61D7
:101DB8003549FB699B080233BA6941F82320384B3F
:101DC8001B68BB613B69DB43BA691340BB613B6875
:101DD8005B6803F48033002B03D0BA693B69134373
:101DE800BB612F4ABB6913602D4B5B68BB613B69C4
:101DF800DB43BA691340BB613B685B6803F400339B
:101E0800002B03D0BA693B691343BB61244ABB6901
:101E18005360234B9B68BB613B69DB43BA69134042
:101E2800BB613B685B6803F48013002B03D0BA697D
:101E38003B691343BB611A4ABB699360184BDB6863
:101E4800BB613B69DB43BA691340BB613B685B68B4
:101E580003F40013002B03D0BA693B691343BB6139
:101E68000F4ABB69D360FB690133FB61FB690F2B28
:101E78007FF6A2AE00BF00BF2437BD465DF8047BE5
:101E8800704700BF0038024000380140000002409F
:101E98000004024000080240000C0240001002400A
:101EA800003C014080B584B000AF78607B68002BAF
:101EB80001D101232BE17B6893F83D30DBB2002B85
:101EC80006D17B68002283F83C207868FEF732FF51
:101ED8007B68242283F83D207B681B681A687B682E
:101EE8001B6822F001021A607B681B681A687B680D
:101EF8001B6842F400421A607B681B681A687B689A
:101F08001B6822F400421A6001F038F8F8607B6818
:101F18005B68814A934207D8FB68804A934294BF22
:101F280001230023DBB206E0FB687D4A934294BF9D
:101F380001230023DBB2002B01D00123E7E0FB687B
:101F4800784AA2FB03239B0CBB607B681B685B6819
:101F580023F03F017B681B68BA680A435A607B68B4
:101F68001B681B6A23F03F017B685B686A4A9342DF
:101F780002D8BB68013309E0BB684FF4967202FBD4
:101F880003F3694AA2FB03239B0901337A681268A9
:101F98000B4313627B681B68DB6923F44F4222F012
:101FA800FF027B685B685C498B4219D8FB68591E45
:101FB8007B685B685B00B1FBF3F3591C40F6FC736C
:101FC8000B40002B0AD0FB68591E7B685B685B00DE
:101FD800B1FBF3F30133C3F30B0351E004234FE0E8
:101FE8007B689B68002B11D1FB68581E7B68596879
:101FF8000B465B000B44B0FBF3F30133C3F30B0355
:10200800002B0CBF01230023DBB212E0FB68581E33
:102018007B6859680B469B000B4499000B44B0FB46
:10202800F3F30133C3F30B03002B0CBF012300238D
:10203800DBB2002B01D0012322E07B689B68002BD8
:102048000ED1FB68581E7B6859680B465B000B4431
:10205800B0FBF3F30133C3F30B0343F400430FE086
:10206800FB68581E7B6859680B469B000B44990017
:102078000B44B0FBF3F30133C3F30B0343F44043C6
:10208800796809681343CB617B681B681B6823F078
:10209800C0017B68DA697B681B6A1A437B681B6826
:1020A8000A431A607B681B689B6823F4034323F088
:1020B800FF037A6811697A68D26811437A681268EE
:1020C8000B4393607B681B68DB6823F0FF017B6828
:1020D8005A697B689B691A437B681B680A43DA6004
:1020E8007B681B681A687B681B6842F001021A60EB
:1020F8007B6800221A647B68202283F83D207B6875
:1021080000221A637B68002283F83E2000231846C9
:102118001037BD4680BD00BFA08601007F841E0029
:10212800FF083D0083DE1B43D34D621080B588B0A5
:1021380002AFF8607A601A460B467B8113463B81F2
:10214800FEF766FF7861FB6893F83D30DBB2202B21
:1021580040F0E0807B690093192301227049F868F8
:1021680000F064F90346002B01D00223D3E0FB689A
:1021780093F83C30012B01D10223CCE0FB6801220B
:1021880083F83C20FB681B681B6803F00103012BE4
:1021980007D0FB681B681A68FB681B6842F00102DD
:1021A8001A60FB681B681A68FB681B6822F40062E7
:1021B8001A60FB68212283F83D20FB68102283F80F
:1021C8003E20FB6800221A64FB687A685A62FB6842
:1021D8003A895A85FB685B8D9AB2FB681A85FB6859
:1021E800504ADA6279897B693A6AF86800F09CF8A3
:1021F8000346002B01D001238DE000233B61FB68DF
:102208001B685B693B61FB681B689B693B613B69B9
:1022180066E07A69396AF86800F0DEF90346002B4F
:102228000DD0FB681B6C042B07D1FB681B681A6870
:10223800FB681B6842F400721A6001236BE0FB68BC
:102248005B6A1A78FB681B681A61FB685B6A5A1C30
:10225800FB685A62FB685B8D9BB2013B9AB2FB68D4
:102268005A85FB681B8D013B9AB2FB681A85FB688F
:102278001B685B6903F00403042B1BD1FB681B8DEF
:10228800002B17D0FB685B6A1A78FB681B681A6119
:10229800FB685B6A5A1CFB685A62FB685B8D9BB2E1
:1022A800013B9AB2FB685A85FB681B8D013B9AB2C9
:1022B800FB681A857A69396AF86800F0CEF903462E
:1022C800002B0DD0FB681B6C042B07D1FB681B6827
:1022D8001A68FB681B6842F400721A6001231AE04E
:1022E800FB681B8D002B94D1FB681B681A68FB6880
:1022F8001B6842F400721A60FB68202283F83D20B4
:10230800FB68002283F83E20FB68002283F83C200B
:10231800002300E0022318461837BD4680BD00BFE1
:10232800020010000000FFFF80B588B002AFF8601F
:102338007A603B600B467B81FB68DB6A7B617B696B
:10234800082B06D07B69012B03D07B6913F5803FEE
:1023580008D1FB681B681A68FB681B6842F4807226
:102368001A600BE0FB681B6B122B07D1FB681B681C
:102378001A68FB681B6842F480721A603B68009315
:102388007B6800224FF00111F86800F04FF803460F
:10239800002B0DD0FB681B681B6803F48073B3F532
:1023A800807F03D1FB684FF400721A64032335E081
:1023B800FB681B69B3F5804F08D17B89DBB21A46ED
:1023C800FB681B6802F0FE021A611BE07B89DB11C7
:1023D800DBB203F00603DBB263F00F03DAB2FB688B
:1023E8001B681A613B687A680E49F86800F075F84E
:1023F8000346002B01D0012310E07B89DAB2FB6889
:102408001B681A613B687A680749F86800F065F844
:102418000346002B01D0012300E00023184618379B
:10242800BD4680BD080001000200010080B584B0EF
:1024380000AFF860B9603B601346FB7125E03B686C
:10244800B3F1FF3F21D0FEF7E3FD0246BB69D31A83
:102458003A689A4202D33B68002B16D1FB680022E7
:102468001A63FB68202283F83D20FB68002283F86A
:102478003E20FB681B6C43F02002FB681A64FB6873
:10248800002283F83C20012323E0BB681B0CDBB24D
:10249800012B0DD1FB681B685B69DA43BB681340ED
:1024A8009BB2002B0CBF01230023DBB21A460CE0C1
:1024B800FB681B689B69DA43BB6813409BB2002B1F
:1024C8000CBF01230023DBB21A46FB799A42B6D02F
:1024D800002318461037BD4680BD80B584B000AFD4
:1024E800F860B9607A603B6051E0FB681B685B6923
:1024F80003F48063B3F5806F23D1FB681B681A6807
:10250800FB681B6842F400721A60FB681B686FF472
:1025180080625A61FB6800221A63FB68202283F8F4
:102528003D20FB68002283F83E20FB681B6C43F0CB
:102538000402FB681A64FB68002283F83C2001232C
:1025480046E07B68B3F1FF3F21D0FEF761FD02460C
:102558003B68D31A7A689A4202D37B68002B16D15B
:10256800FB6800221A63FB68202283F83D20FB6881
:10257800002283F83E20FB681B6C43F02002FB68B6
:102588001A64FB68002283F83C20012320E0BB6822
:102598001B0CDBB2012B0CD1FB681B685B69DA43AF
:1025A800BB6813409BB2002B14BF01230023DBB28E
:1025B8000BE0FB681B689B69DA43BB6813409BB25E
:1025C800002B14BF01230023DBB2002B8DD1002385
:1025D80018461037BD4680BD80B584B000AFF8609E
:1025E800B9607A602DE0F86800F078F80346002BAF
:1025F80001D001232DE0BB68B3F1FF3F21D0FEF7E6
:1026080007FD02467B68D31ABA689A4202D3BB68B0
:10261800002B16D1FB6800221A63FB68202283F87E
:102628003D20FB68002283F83E20FB681B6C43F0CA
:102638002002FB681A64FB68002283F83C2001230F
:1026480007E0FB681B685B6903F08003802BCAD135
:10265800002318461037BD4680BD80B584B000AF52
:10266800F860B9607A602DE0F86800F037F8034642
:10267800002B01D001232DE0BB68B3F1FF3F21D02F
:10268800FEF7C6FC02467B68D31ABA689A4202D3A0
:10269800BB68002B16D1FB6800221A63FB68202256
:1026A80083F83D20FB68002283F83E20FB681B6C02
:1026B80043F02002FB681A64FB68002283F83C2080
:1026C800012307E0FB681B685B6903F00403042B24
:1026D800CAD1002318461037BD4680BD80B483B0E8
:1026E80000AF78607B681B685B6903F48063B3F5AF
:1026F800806F1BD17B681B686FF480625A617B68AE
:1027080000221A637B68202283F83D207B68002220
:1027180083F83E207B681B6C43F004027B681A64D4
:102728007B68002283F83C20012300E00023184640
:102738000C37BD465DF8047B7047000080B586B055
:1027480000AF78607B68002B01D1012364E27B68CD
:102758001B6803F00103002B75D0A34B9B6803F0A3
:102768000C03042B0CD0A04B9B6803F00C03082B24
:1027780012D19D4B5B6803F48003B3F5800F0BD136
:10278800994B1B6803F40033002B5BD07B685B68B4
:10279800002B57D101233FE27B685B68B3F5803F8C
:1027A80006D1914B1B68904A43F4803313601DE0B7
:1027B8007B685B68B3F5A02F0CD18B4B1B688A4AEA
:1027C80043F480231360884B1B68874A43F48033A3
:1027D80013600BE0844B1B68834A23F48033136037
:1027E800814B1B68804A23F4802313607B685B68F5
:1027F800002B13D0FEF70CFC386108E0FEF708FC4C
:1028080002463B69D31A642B01D9032304E2764BB1
:102818001B6803F40033002BF0D014E0FEF7F8FB3C
:10282800386108E0FEF7F4FB02463B69D31A642BD3
:1028380001D90323F0E16C4B1B6803F40033002B30
:10284800F0D100E000BF7B681B6803F00203002B97
:1028580063D0654B9B6803F00C03002B0BD0624BD5
:102868009B6803F00C03082B1CD15F4B5B6803F4D7
:102878008003002B16D15C4B1B6803F00203002B6E
:1028880005D07B68DB68012B01D00123C4E1564BDE
:102898001B6823F0F8027B681B69DB00524913436D
:1028A8000B603AE07B68DB68002B20D04F4B01229D
:1028B8001A60FEF7ADFB386108E0FEF7A9FB024697
:1028C8003B69D31A022B01D90323A5E1464B1B68A8
:1028D80003F00203002BF0D0434B1B6823F0F802EF
:1028E8007B681B69DB00404913430B6015E03F4BD5
:1028F80000221A60FEF78CFB386108E0FEF788FBBF
:1029080002463B69D31A022B01D9032384E1364BD3
:102918001B6803F00203002BF0D17B681B6803F0EF
:102928000803002B30D07B685B69002B16D0304B36
:1029380001221A60FEF76CFB386108E0FEF768FBBD
:1029480002463B69D31A022B01D9032364E1264BC3
:102958005B6F03F00203002BF0D015E0244B00223C
:102968001A60FEF755FB386108E0FEF751FB024696
:102978003B69D31A022B01D903234DE11A4B5B6F34
:1029880003F00203002BF0D17B681B6803F00403FB
:10299800002B00F0A0800023FB75134B1B6C03F089
:1029A8008053002B0FD10023BB600F4B1B6C0E4ACA
:1029B80043F0805313640C4B1B6C03F08053BB60D3
:1029C800BB680123FB750B4B1B6803F48073002B5A
:1029D80021D1084B1B68074A43F480731360FEF744
:1029E80017FB386111E000BF003802400000474281
:1029F800800E474200700040FEF70AFB02463B6922
:102A0800D31A022B01D9032306E1854B1B6803F473
:102A18008073002BF0D07B689B68012B06D1814B1B
:102A28001B6F804A43F0010313671CE07B689B68B7
:102A3800052B0CD17B4B1B6F7A4A43F004031367B9
:102A4800784B1B6F774A43F0010313670BE0754B14
:102A58001B6F744A23F001031367724B1B6F714A93
:102A680023F0040313677B689B68002B15D0FEF7DF
:102A7800CFFA38610AE0FEF7CBFA02463B69D31A6F
:102A880041F28832934201D90323C5E0654B1B6F9D
:102A980003F00203002BEED014E0FEF7B9FA386118
:102AA8000AE0FEF7B5FA02463B69D31A41F28832CA
:102AB800934201D90323AFE05A4B1B6F03F0020383
:102AC800002BEED1FB7D012B05D1564B1B6C554AD3
:102AD80023F0805313647B689B69002B00F09B8074
:102AE800504B9B6803F00C03082B5CD07B689B69F8
:102AF800022B41D14C4B00221A60FEF789FA38614B
:102B080008E0FEF785FA02463B69D31A022B01D981
:102B1800032381E0434B1B6803F00073002BF0D1C3
:102B28007B68DA697B681B6A1A437B685B6A9B016E
:102B38001A437B689B6A5B08013B1B041A437B684A
:102B4800DB6A1B06374913434B60374B01221A6077
:102B5800FEF75EFA386108E0FEF75AFA02463B696A
:102B6800D31A022B01D9032356E02E4B1B6803F01E
:102B78000073002BF0D04EE02B4B00221A60FEF7BA
:102B880047FA386108E0FEF743FA02463B69D31A70
:102B9800022B01D903233FE0224B1B6803F000738B
:102BA800002BF0D137E07B689B69012B01D1012311
:102BB80032E01C4B5B68FB607B689B69012B28D06B
:102BC800FB6803F480027B68DB699A4221D1FB68C9
:102BD80003F03F027B681B6A9A421AD1FA6847F6EB
:102BE800C07313407A68526A9201934211D1FB680C
:102BF80003F440327B689B6A5B08013B1B049A42E2
:102C080007D1FB6803F070627B68DB6A1B069A4297
:102C180001D0012300E0002318461837BD4680BDC7
:102C280000700040003802406000474280B584B020
:102C380000AF786039607B68002B01D10123CCE0BC
:102C4800684B1B6803F007033A689A420CD9654B36
:102C58003A68D2B21A70634B1B6803F007033A68EC
:102C68009A4201D00123B8E07B681B6803F0020395
:102C7800002B20D07B681B6803F00403002B05D0D1
:102C8800594B9B68584A43F4E05393607B681B6830
:102C980003F00803002B05D0534B9B68524A43F4BA
:102CA80060439360504B9B6823F0F0027B689B68FD
:102CB8004D4913438B607B681B6803F00103002BAD
:102CC80044D07B685B68012B07D1474B1B6803F432
:102CD8000033002B19D101237FE07B685B68022B4E
:102CE80003D07B685B68032B07D13F4B1B6803F05D
:102CF8000073002B09D101236FE03B4B1B6803F0E5
:102D08000203002B01D1012367E0374B9B6823F0B6
:102D180003027B685B68344913438B60FEF778F9DC
:102D2800F8600AE0FEF774F90246FB68D31A41F22C
:102D38008832934201D903234FE02B4B9B6803F061
:102D48000C027B685B689B009A42EBD1254B1B68A1
:102D580003F007033A689A420CD2224B3A68D2B27F
:102D68001A70204B1B6803F007033A689A4201D097
:102D7800012332E07B681B6803F00403002B08D0B2
:102D8800194B9B6823F4E0527B68DB6816491343B0
:102D98008B607B681B6803F00803002B09D0124B7B
:102DA8009B6823F460427B681B69DB000E49134370
:102DB8008B6000F021F802460B4B9B681B0903F05F
:102DC8000F030A49CB5C22FA03F3094A1360094B43
:102DD8001B681846FEF7D8F8002318461037BD467A
:102DE80080BD00BF003C0240003802408840000817
:102DF8000000002004000020B0B584B000AF00211E
:102E080079600021F960002139600021B9605249D8
:102E1800896801F00C0108290DD0082900F2948076
:102E2800002902D0042903D08EE04C4BBB608EE011
:102E38004B4BBB608BE04849496801F03F01796022
:102E48004549496801F48001002924D0424949686C
:102E5800890908464FF0000140F2FF144FF00005C1
:102E680000EA040201EA05033D4901FB03F00021E1
:102E780001FB02F144183A49A2FB01016318194603
:102E88007B681A464FF00003FDF7A2F902460B468D
:102E98001346FB604AE0304B5B689B091A464FF0CB
:102EA800000340F2FF104FF0000102EA000403EAB9
:102EB8000105204629464FF000024FF000034B0160
:102EC80043EAD063420110461946001B61EB050135
:102ED8004FF000024FF000038B0143EA9063820138
:102EE800121A63EB01034FF000004FF00001D90004
:102EF80041EA5271D00002460B46121945EB030312
:102F08004FF000004FF00001990241EA92519002FF
:102F180002460B46104619467B681A464FF00003D6
:102F2800FDF756F902460B461346FB600A4B5B68F1
:102F38001B0C03F0030301335B003B60FA683B683A
:102F4800B2FBF3F3BB6002E0044BBB6000BFBB689D
:102F580018461037BD46B0BD003802400024F400C2
:102F680040787D0180B400AF034B1B681846BD460E
:102F78005DF8047B704700BF0000002080B500AFFB
:102F8800FFF7F0FF0246054B9B689B0A03F0070317
:102F98000349CB5C22FA03F3184680BD003802408F
:102FA8009840000880B500AFFFF7DCFF0246054BEC
:102FB8009B685B0B03F007030349CB5C22FA03F31E
:102FC800184680BD003802409840000880B582B09D
:102FD80000AF78607B68002B01D101233FE07B685C
:102FE80093F83D30DBB2002B06D17B68002283F8D2
:102FF8003C207868FDF7E6FE7B68242283F83D20B4
:103008007B681B68DA687B681B6822F40052DA6008
:10301800786800F01DFE7B681B681A697B681B686E
:1030280022F490421A617B681B685A697B681B68A6
:1030380022F02A025A617B681B68DA687B681B6881
:1030480042F40052DA607B6800221A647B6820220E
:1030580083F83D207B68202283F83E200023184611
:103068000837BD4680BD80B58AB002AFF860B96048
:103078003B601346FB8000237B61FB6893F83D307F
:10308800DBB2202B7CD1BB68002B02D0FB88002B45
:1030980001D1012375E0FB6893F83C30012B01D185
:1030A80002236EE0FB68012283F83C20FB680022C3
:1030B8001A64FB68212283F83D20FDF7A9FF786197
:1030C800FB68FA889A84FB68FA88DA84FB689B684C
:1030D800B3F5805F08D1FB681B69002B04D100237E
:1030E800FB61BB68BB6103E0BB68FB610023BB619C
:1030F800FB68002283F83C202AE03B6800937B6948
:1031080000228021F86800F09BFB0346002B01D0C9
:10311800032336E0FB69002B0BD1BB691B881A46D9
:10312800FB681B68C2F308025A60BB690233BB61C3
:1031380007E0FB691A78FB681B685A60FB69013372
:10314800FB61FB68DB8C9BB2013B9AB2FB68DA84BB
:10315800FB68DB8C9BB2002BCFD13B6800937B696B
:1031680000224021F86800F06BFB0346002B01D0D9
:10317800032306E0FB68202283F83D20002300E0BB
:10318800022318462037BD4680BD80B58AB002AFFD
:10319800F860B9603B601346FB8000237B61FB68E5
:1031A80093F83E30DBB2202B40F08C80BB68002BBC
:1031B80002D0FB88002B01D1012384E0FB6893F83F
:1031C8003C30012B01D102237DE0FB68012283F80A
:1031D8003C20FB6800221A64FB68222283F83E2008
:1031E800FB6800221A63FDF713FF7861FB68FA8811
:1031F8009A85FB68FA88DA85FB689B68B3F5805F77
:1032080008D1FB681B69002B04D10023FB61BB6854
:10321800BB6103E0BB68FB610023BB61FB68002264
:1032280083F83C2043E03B6800937B69002220211F
:10323800F86800F005FB0346002B01D0032342E0A9
:10324800FB69002B0CD1FB681B685B689BB2C3F35E
:1032580008039AB2BB691A80BB690233BB611FE0DD
:10326800FB689B68B3F5805F07D0FB689B68002B01
:103278000AD1FB681B69002B06D1FB681B685B68D9
:10328800DAB2FB691A7008E0FB681B685B68DBB29E
:1032980003F07F03DAB2FB691A70FB690133FB6143
:1032A800FB68DB8D9BB2013B9AB2FB68DA85FB6851
:1032B800DB8D9BB2002BB6D1FB68202283F83E2021
:1032C800002300E0022318462037BD4680BD0000D9
:1032D80080B5BAB000AF78607B681B681B68C7F818
:1032E800E4307B681B68DB68C7F8E0307B681B68E4
:1032F8005B69C7F8DC300023C7F8D8300023C7F86B
:10330800D430D7F8E43003F00F03C7F8D830D7F833
:10331800D830002B0FD1D7F8E43003F02003002B6E
:1033280009D0D7F8E03003F02003002B03D07868E9
:1033380000F0D3FB56E2D7F8D830002B00F0DE803F
:10334800D7F8DC3003F00103002B06D1D7F8E030C2
:1033580003F49073002B00F0D180D7F8E43003F029
:103368000103002B0BD0D7F8E03003F48073002B57
:1033780005D07B681B6C43F001027B681A64D7F8A0
:10338800E43003F00403002B0BD0D7F8DC3003F053
:103398000103002B05D07B681B6C43F002027B689D
:1033A8001A64D7F8E43003F00203002B0BD0D7F8E7
:1033B800DC3003F00103002B05D07B681B6C43F065
:1033C80004027B681A64D7F8E43003F00803002B82
:1033D80011D0D7F8E03003F02003002B05D1D7F83F
:1033E800DC3003F00103002B05D07B681B6C43F035
:1033F80008027B681A647B681B6C002B00F0ED8167
:10340800D7F8E43003F02003002B08D0D7F8E030D9
:1034180003F02003002B02D0786800F05EFB7B6885
:103428001B685B6903F04003402B0CBF012300239A
:10343800DBB2C7F8D4307B681B6C03F00803002BA1
:1034480003D1D7F8D430002B4FD0786800F066FA53
:103458007B681B685B6903F04003402B41D17B68A4
:103468001B681433C7F89C30D7F89C3053E8003FEA
:10347800C7F89830D7F8983023F04003C7F8D03011
:103488007B681B681433D7F8D020C7F8A820C7F882
:10349800A430D7F8A410D7F8A82041E80023C7F82B
:1034A800A030D7F8A030002BD9D17B689B6B002BBC
:1034B80013D07B689B6B7D4A1A657B689B6B1846AB
:1034C800FEF749FB0346002B16D07B689B6B1B6DF0
:1034D8007A68926B104698470EE0786800F09AF97F
:1034E8000AE0786800F096F906E0786800F092F94A
:1034F8007B6800221A6470E100BF6EE17B681B6B79
:10350800012B40F04A81D7F8E43003F01003002B78
:1035180000F04381D7F8E03003F01003002B00F0EF
:103528003C810023BB607B681B681B68BB607B68B1
:103538001B685B68BB60BB687B681B685B6903F0E2
:103548004003402B40F0B4807B689B6B1B685B6832
:10355800A7F8BE30B7F8BE30002B00F040817B687A
:103568009B8DB7F8BE209A4280F039817B68B7F806
:10357800BE20DA857B689B6BDB69B3F5807F00F042
:1035880088807B681B680C33C7F88830D7F8883088
:1035980053E8003FC7F88430D7F8843023F48073A9
:1035A800C7F8B8307B681B680C33D7F8B820C7F861
:1035B8009420C7F89030D7F89010D7F8942041E8B5
:1035C8000023C7F88C30D7F88C30002BD9D17B6812
:1035D8001B6814337B677B6F53E8003F3B673B6F87
:1035E80023F00103C7F8B4307B681B681433D7F89D
:1035F800B420C7F88020FB67F96FD7F8802041E82E
:103608000023BB67BB6F002BE1D17B681B681433B9
:103618003B663B6E53E8003FFB65FB6D23F04003C0
:10362800C7F8B0307B681B681433D7F8B020FA6647
:10363800BB66B96EFA6E41E800237B667B6E002B91
:10364800E3D17B68202283F83E207B6800221A633E
:103658007B681B680C33FB64FB6C53E8003FBB645E
:10366800BB6C23F01003C7F8AC307B681B680C33C5
:10367800D7F8AC20BA657B65796DBA6D41E800234F
:103688003B653B6D002BE3D17B689B6B1846FEF7CF
:10369800F2F97B689A8D7B68DB8D9BB2D31A9BB25B
:1036A8001946786800F0C0F899E000BFEB390008C7
:1036B8007B689A8D7B68DB8D9BB2D31AA7F8CE30D6
:1036C8007B68DB8D9BB2002B00F08B80B7F8CE3087
:1036D800002B00F086807B681B680C33BB63BB6BD8
:1036E80053E8003F7B637B6B23F49073C7F8C830C3
:1036F8007B681B680C33D7F8C8207A643B64396C44
:103708007A6C41E80023FB63FB6B002BE3D17B68F9
:103718001B6814337B627B6A53E8003F3B623B6A59
:1037280023F00103C7F8C4307B681B681433D7F84B
:10373800C4203A63FB62F96A3A6B41E80023BB6232
:10374800BB6A002BE3D17B68202283F83E207B688C
:1037580000221A637B681B680C333B613B6953E8A2
:10376800003FFB60FB6823F01003C7F8C0307B689C
:103778001B680C33D7F8C020FA61BB61B969FA69D4
:1037880041E800237B617B69002BE3D1B7F8CE3099
:103798001946786800F048F823E0D7F8E43003F0D9
:1037A8008003002B09D0D7F8E03003F08003002B0A
:1037B80003D0786800F029F914E0D7F8E43003F072
:1037C8004003002B0ED0D7F8E03003F04003002B65
:1037D80008D0786800F069F904E000BF02E000BF93
:1037E80000E000BFE837BD4680BD00BF80B483B0AD
:1037F80000AF786000BF0C37BD465DF8047B7047AA
:1038080080B483B000AF786000BF0C37BD465DF868
:10381800047B704780B483B000AF786000BF0C377A
:10382800BD465DF8047B704780B483B000AF786014
:103838000B467B8000BF0C37BD465DF8047B7047A4
:1038480080B590B000AFF860B9603B601346FB717B
:1038580050E0BB6CB3F1FF3F4CD0BB6C002B07D0E2
:10386800FDF7D6FB02463B68D31ABA6C9A4241D29E
:10387800FB681B680C33BB62BB6A53E8003F7B6282
:103888007B6A23F4D073FB63FB681B680C33FA6B09
:103898007A633B63396B7A6B41E80023FB62FB6A0E
:1038A800002BE5D1FB681B6814337B617B6953E807
:1038B800003F3B613B6923F00103BB63FB681B6866
:1038C8001433BA6B3A62FB61F9693A6A41E800233A
:1038D800BB61BB69002BE5D1FB68202283F83D2042
:1038E800FB68202283F83E20FB68002283F83C20F6
:1038F80003230FE0FB681B681A68BB681340BA68AB
:103908009A420CBF01230023DBB21A46FB799A4284
:103918009FD0002318464037BD4680BD80B495B07F
:1039280000AF78607B681B680C337B637B6B53E864
:10393800003F3B633B6B23F49073FB647B681B681D
:103948000C33FA6C3A64FB63F96B3A6C41E8002378
:10395800BB63BB6B002BE5D17B681B6814333B62F0
:103968003B6A53E8003FFB61FB6923F00103BB643A
:103978007B681B681433BA6CFA62BB62B96AFA6A6C
:1039880041E800237B627B6A002BE5D17B681B6BD7
:10399800012B19D17B681B680C33FB60FB6853E86B
:1039A800003FBB60BB6823F010037B647B681B6827
:1039B8000C337A6CBA617B617969BA6941E8002392
:1039C8003B613B69002BE5D17B68202283F83E20D0
:1039D8007B6800221A6300BF5437BD465DF8047B3C
:1039E800704780B584B000AF78607B689B6BFB60E4
:1039F800FB680022DA85FB680022DA84F868FFF7A2
:103A080009FF00BF1037BD4680BD80B485B000AF48
:103A180078607B6893F83D30DBB2212B3ED17B6820
:103A28009B68B3F5805F14D17B681B69002B10D1AC
:103A38007B681B6AFB60FB681B881A467B681B68EF
:103A4800C2F308025A607B681B6A9A1C7B681A6278
:103A580008E07B681B6A591C7A6811621A787B68CF
:103A68001B685A607B68DB8C9BB2013B9BB27A680F
:103A78001946D184002B0FD17B681B68DA687B68F4
:103A88001B6822F08002DA607B681B68DA687B6852
:103A98001B6842F04002DA60002300E00223184667
:103AA8001437BD465DF8047B704780B582B000AF1F
:103AB80078607B681B68DA687B681B6822F04002C4
:103AC800DA607B68202283F83D207868FFF78EFE55
:103AD800002318460837BD4680BD80B58CB000AFBE
:103AE80078607B6893F83E30DBB2222B40F0AB80E5
:103AF8007B689B68B3F5805F17D17B681B69002BD7
:103B080013D10023FB627B689B6ABB627B681B68DE
:103B18005B689BB2C3F308039AB2BB6A1A807B68DE
:103B28009B6A9A1C7B689A6226E07B689B6AFB62A8
:103B38000023BB627B689B68B3F5805F07D07B6816
:103B48009B68002B0AD17B681B69002B06D17B6818
:103B58001B685B68DAB2FB6A1A7008E07B681B684E
:103B68005B68DBB203F07F03DAB2FB6A1A707B682A
:103B78009B6A5A1C7B689A627B68DB8D9BB2013B0F
:103B88009BB27A681946D185002B5AD17B681B688D
:103B9800DA687B681B6822F02002DA607B681B68A1
:103BA800DA687B681B6822F48072DA607B681B68BD
:103BB8005A697B681B6822F001025A617B682022DF
:103BC80083F83E207B681B6B012B35D17B68002274
:103BD8001A637B681B680C337B617B6953E8003F81
:103BE8003B613B6923F010037B627B681B680C33E5
:103BF8007A6A3A62FB61F9693A6A41E80023BB6173
:103C0800BB69002BE5D17B681B681B6803F01003B8
:103C1800102B0AD10023FB607B681B681B68FB60C4
:103C28007B681B685B68FB60FB687B689B8D19463B
:103C38007868FFF7F9FD02E07868FFF7E1FD0023F7
:103C480002E0002300E0022318463037BD4680BD5D
:103C58002DE9F04F9FB000AFF866FB6E1B681B693B
:103C680023F44050FB6ED968FB6E1A6840EA0103E2
:103C78001361FB6E9A68FB6E1B691A43FB6E5B69E6
:103C88001A43FB6EDB6913433B67FB6E1B68DB68FB
:103C980023F4164121F00C01FB6E1A683B6F0B43AD
:103CA800D360FB6E1B685B6923F44070FB6E9969F7
:103CB800FB6E1A6840EA01035361FB6E1A68C54B34
:103CC8009A4204D0FB6E1A68C34B9A4203D1FFF79D
:103CD80069F9786702E0FFF751F97867FB6EDB69ED
:103CE800B3F5004F40F0B6807B6F1C464FF00005DF
:103CF80022462B46911839645B417B64D7E910232F
:103D0800121945EB03034FF000004FF00001D900F2
:103D180041EA5271D00002460B46111939666B41CF
:103D28007B66FB6E5B681A464FF000039118B96317
:103D38005B41FB63D7E90E23D7E91801FCF748FA82
:103D480002460B46A54BA3FB02235B091E017B6FB2
:103D58001C464FF0000522462B46911839635B41FB
:103D68007B63D7E90C23121945EB03034FF00000DE
:103D78004FF00001D90041EA5271D00002460B46CB
:103D88001119B9656B41FB65FB6E5B681A464FF00C
:103D980000039118B9625B41FB62D7E90A23D7E9AE
:103DA8001601FCF715FA02460B468C4BA3FB0213CF
:103DB8005B09642101FB03F3D31ADB003233874A22
:103DC800A2FB03235B095B0003F4F8731E447B6FBB
:103DD80018464FF0000102460B4694183C625B41BE
:103DE8007B62D7E90823121841EB03034FF0000464
:103DF8004FF00005DD0045EA5275D40022462B46F7
:103E080014183C654B417B65FB6E5B681A464FF0A6
:103E180000039118B9615B41FB61D7E90623D7E933
:103E28001401FCF7D5F902460B466C4BA3FB0213B1
:103E38005B09642101FB03F3D31ADB003233674AC1
:103E4800A2FB03235B0903F00702FB6E1B683244E5
:103E58009A60B9E07B6F1C464FF0000522462B465E
:103E6800911839615B417B61D7E90423121945EB4D
:103E780003034FF000004FF00001D90041EA5271EE
:103E8800D00002460B4612EB040843EB0509FB6E13
:103E98005B6818464FF000014FF000024FF0000336
:103EA8008B0043EA9073820040464946FCF790F93C
:103EB80002460B46494BA3FB02235B091E017B6F9D
:103EC80018464FF0000102460B469418BC605B414F
:103ED800FB60D7E90223121841EB03034FF00004FB
:103EE8004FF00005DD0045EA5275D40022462B4606
:103EF8001418BC644B41FB64FB6E5B6818464FF0BA
:103F080000014FF000024FF000038B0043EA90736A
:103F18008200D7E91201FCF75BF902460B462F4BEA
:103F2800A3FB02135B09642101FB03F3D31A1B01F2
:103F380032332A4AA2FB03235B0903F0F0031E4431
:103F48007B6F18464FF0000102460B4694183C6000
:103F58005B417B60D7E90023121841EB03034FF064
:103F680000044FF00005DD0045EA5275D4002246F2
:103F78002B4612EB000A43EB010BFB6E5B681846FD
:103F88004FF000014FF000024FF000038B0043EAAE
:103F98009073820050465946FCF71AF902460B46C0
:103FA8000E4BA3FB02135B09642101FB03F3D31A35
:103FB8001B013233094AA2FB03235B0903F00F02FA
:103FC800FB6E1B6832449A6000BF7C37BD46BDE873
:103FD800F08F00BF00100140001401401F85EB5115
:103FE80070B50D4D0D4C641BA4100026A64209D1D6
:103FF8000B4D0C4C00F020F8641BA4100026A642C0
:1040080005D170BD55F8043B98470136EEE755F8E1
:10401800043B98470136F2E7A8400008A84000088A
:10402800A8400008AC40000802440346934200D16F
:10403800704703F8011BF9E7F8B500BFF8BC08BCE6
:104048009E467047F8B500BFF8BC08BC9E4670474E
:1040580054656D70313A200054656D70323A200015
:104068000000000000000000000000003030303088
:104078000D0A00003030303030300D0A00000000EA
:104088000000000000000000010203040607080900
:08409800000000000102030416
:0840A00068C1FF7F0100000070
:0440A800BD0100084E
:0440AC00990100086E
:0C40B0000024F4001000000001000000DB
:0400000508000EF9E8
:00000001FF
