:020000040800F2
:100000000028002021090008C5080008CB080008C6
:10001000D1080008D7080008DD080008000000002B
:10002000000000000000000000000000E3080008DD
:10003000EF08000800000000FB080008070900089E
:1000400069090008690900086909000869090008C8
:1000500069090008690900086909000869090008B8
:1000600069090008690900086909000869090008A8
:100070006909000869090008690900086909000898
:100080006909000869090008690900086909000888
:100090006909000869090008690900086909000878
:1000A0006909000869090008690900086909000868
:1000B00069090008690900080000000069090008D2
:1000C000690900080000000000000000690900083C
:1000D000000000006909000869090008000000002C
:1000E00069090008690900086909000800000000A2
:1000F0000000000000000000000000000000000000
:0C01000000000000000000005FF808F1A3
:10010C0010B5054C237833B9044B13B10448AFF345
:10011C0000800123237010BD0C00002000000000A3
:10012C00AC30000808B5034B1BB103490348AFF3CF
:10013C00008008BD0000000010000020AC3000085A
:10014C0080B586B002AF0346FB71FB7923F00F0339
:10015C00FB73FB791B01BB73FB7B43F00C03DBB222
:10016C003B72FB7B43F00803DBB27B72BB7B43F03F
:10017C000C03DBB2BB72BB7B43F00803DBB2FB723C
:10018C0007F108026423009304234E21034801F075
:10019C0067FC00BF1037BD4680BD00BF28000020A3
:1001AC0080B586B002AF0346FB71FB7923F00F03D9
:1001BC00FB73FB791B01BB73FB7B43F00D03DBB2C1
:1001CC003B72FB7B43F00903DBB27B72BB7B43F0DE
:1001DC000D03DBB2BB72BB7B43F00903DBB2FB72DA
:1001EC0007F108026423009304234E21034801F015
:1001FC0037FC00BF1037BD4680BD00BF2800002073
:10020C0080B582B000AF8020FFF79AFF00237B609F
:10021C0005E02020FFF7C4FF7B6801337B607B681F
:10022C00452BF6DD00BF00BF0837BD4680BD000082
:10023C0080B584B000AF3B1D00221A605A609A60F2
:10024C0000237B600123BB600023FB603B1D194630
:10025C00054800F0CFFE0346002B01D000F02EFA2B
:10026C0000BF1037BD4680BD7C00002080B584B037
:10027C0000AF3B1D00221A605A609A6001237B601C
:10028C000123BB603B1D1946054800F0B3FE034635
:10029C00002B01D000F012FA00BF1037BD4680BD14
:1002AC007C00002080B584B000AF284A3B4607CACA
:1002BC0003C31A8000F054FB00F04EF800F04EF926
:1002CC0000F0A6F800F020F900F0F0F839466423AD
:1002DC0004221F4802F03DFD3B78312B2FD1FFF754
:1002EC00A7FF1C4800F09AFC64211A4800F070FD2E
:1002FC00184800F073FE0346FB81164800F03CFDE5
:10030C00FB89184600F058F9FA2000F08BFBFFF738
:10031C00ADFF104800F082FC64210E4800F058FD3F
:10032C000C4800F05BFE0346BB810A4800F024FD3C
:10033C00BB89184600F040F9FA2000F073FB3B78BB
:10034C00302BC3D1FFF75CFFC0E700BFC4300008FF
:10035C00AC0000207C00002080B594B000AF07F109
:10036C00280328220021184602F092FE07F11403FC
:10037C0000221A605A609A60DA601A613B1D0022F2
:10038C001A605A609A60DA600123BB624FF48033C2
:10039C00FB6200233B630123BB6302237B644FF4AA
:1003AC008033BB644FF4E013FB6407F12803184659
:1003BC0001F05CFE0346002B01D000F07FF90F2307
:1003CC007B610223BB610023FB614FF480633B62C2
:1003DC0000237B6207F114030221184602F0C6F8D1
:1003EC000346002B01D000F069F902237B604FF427
:1003FC000043FB603B1D184602F052FA0346002BEB
:10040C0001D000F05BF900BF5037BD4680BD000045
:10041C0080B584B000AF3B1D00221A605A609A6010
:10042C00204B214A1A601F4B4FF480729A601D4B6F
:10043C0001221A731B4B00221A751A4B4FF46022BF
:10044C00DA61184B00225A60164B02221A611548C9
:10045C0000F00CFB0346002B01D000F02FF9002319
:10046C007B600123BB600023FB603B1D19460D48DC
:10047C0000F0C0FD0346002B01D000F01FF9012352
:10048C007B600223BB603B1D1946064800F0B2FDA1
:10049C000346002B01D000F011F900BF1037BD4608
:1004AC0080BD00BF7C0000200024014080B500AF5F
:1004BC00124B134A1A60114B124A5A600F4B00220E
:1004CC009A600E4B0022DA600C4B4FF480421A619A
:1004DC000A4B00225A61094B00229A61074B0022F9
:1004EC00DA61064B00221A62044801F075F90346E2
:1004FC00002B01D000F0E2F800BF80BD28000020E6
:10050C0000540040A086010080B500AF114B124A88
:10051C001A60104B4FF416525A600E4B00229A6020
:10052C000C4B0022DA600B4B00221A61094B0C2297
:10053C005A61084B00229A61064B0022DA61054889
:10054C0002F028FB0346002B01D000F0B7F800BFE7
:10055C0080BD00BFAC0000200038014080B485B0E5
:10056C0000AF144B9B69134A43F020039361114B6A
:10057C009B6903F02003FB60FB680E4B9B690D4AE3
:10058C0043F0040393610B4B9B6903F00403BB60C2
:10059C00BB68084B9B69074A43F008039361054B02
:1005AC009B6903F008037B607B6800BF1437BD4672
:1005BC0080BC70470010024080B584B000AF034689
:1005CC00FB800023FB60FB88164A02FB03F3164AF0
:1005DC0082FB03121A44D212DB17D31AFB60F968A0
:1005EC00124BA3FB0123DA0813469B0013445B0058
:1005FC00CA1A042A07D9FB680A330C4AA2FB032344
:10060C00DB08FB6005E0FB68084AA2FB0323DB0860
:10061C00FB60FB88184600F00BF800BF1037BD4696
:10062C0080BD00BF20A1070081000880CDCCCCCCC0
:10063C0080B584B000AF78601D4A07F1080392E8DA
:10064C00030018600433198002330A0C1A70032358
:10065C00FB731BE07968174BA3FB0123DA081346E5
:10066C009B0013445B00CA1AD2B2FB7B3032D2B26D
:10067C0007F110010B4403F8082C7B680D4AA2FB10
:10068C000323DB087B60FB7B013BFB737B68002B4C
:10069C00E0D107F108014FF6FF730622064802F07D
:1006AC00C6FA012000F0BEF900BF1037BD4680BD70
:1006BC00D0300008CDCCCCCCAC00002080B400AF46
:1006CC0072B600BFFEE7000080B485B000AF154BDA
:1006DC009B69144A43F001039361124B9B6903F02D
:1006EC000103BB60BB680F4BDB690E4A43F08053C0
:1006FC00D3610C4BDB6903F080537B607B680A4B46
:10070C005B68FB60FB6823F0E063FB60FB6843F015
:10071C008063FB60044AFB68536000BF1437BD461E
:10072C0080BC7047001002400000014080B588B0CA
:10073C0000AF786007F1100300221A605A609A60CB
:10074C00DA607B681B68144A934221D1134B9B6976
:10075C00124A43F400739361104B9B6903F40073CA
:10076C00FB60FB680D4B9B690C4A43F004039361DF
:10077C000A4B9B6903F00403BB60BB6803233B611A
:10078C0003237B6107F110031946054800F0AAFE0C
:10079C0000BF2037BD4680BD002401400010024040
:1007AC000008014080B588B000AF786007F11003F5
:1007BC0000221A605A609A60DA607B681B68154ADE
:1007CC00934223D1144B9B69134A43F00803936162
:1007DC00114B9B6903F00803FB60FB68C0233B6172
:1007EC0012237B610023BB6107F1100319460B48F0
:1007FC0000F078FE084BDB69074A43F40013D36121
:10080C00054BDB6903F40013BB60BB6800BF2037EA
:10081C00BD4680BD0054004000100240000C014059
:10082C0080B588B000AF786007F1100300221A6021
:10083C005A609A60DA607B681B681C4A934231D11B
:10084C001B4B9B691A4A43F480439361184B9B6979
:10085C0003F48043FB60FB68154B9B69144A43F01F
:10086C0004039361124B9B6903F00403BB60BB68E8
:10087C004FF400733B6102237B610323FB6107F19F
:10088C00100319460B4800F02DFE4FF480633B61BA
:10089C0000237B610023BB6107F110031946054857
:1008AC0000F020FE00BF2037BD4680BD003801405F
:1008BC00001002400008014080B400AFFEE780B495
:1008CC0000AFFEE780B400AFFEE780B400AFFEE7F8
:1008DC0080B400AFFEE780B400AF00BFBD4680BC63
:1008EC00704780B400AF00BFBD4680BC704780B479
:1008FC0000AF00BFBD4680BC704780B500AF00F0B4
:10090C0075F800BF80BD80B400AF00BFBD4680BC91
:10091C00704700000C480D490D4A002302E0D458E2
:10092C00C4500433C4188C42F9D30A4A0A4C00232D
:10093C0001E013600432A242FBD3FFF7E4FF02F0A4
:10094C0083FBFFF7AFFC7047000000200C00002079
:10095C00243100080C000020F4000020FEE7000009
:10096C0080B500AF084B1B68074A43F010031360B7
:10097C00032000F083FD0F2000F008F8FFF7A4FE21
:10098C000023184680BD00BF0020024080B582B015
:10099C0000AF7860124B1A68124B1B7819464FF453
:1009AC007A73B3FBF1F3B2FBF3F3184600F08DFD51
:1009BC000346002B01D001230EE07B680F2B0AD8D5
:1009CC00002279684FF0FF3000F063FD064A7B6827
:1009DC001360002300E0012318460837BD4680BD94
:1009EC0000000020080000200400002080B400AFAC
:1009FC00054B1B781A46054B1B681344034A1360BE
:100A0C0000BFBD4680BC704708000020F0000020ED
:100A1C0080B400AF024B1B681846BD4680BC7047C3
:100A2C00F000002080B584B000AF7860FFF7F0FFD5
:100A3C00B8607B68FB60FB68B3F1FF3F05D00A4BE5
:100A4C001B781A46FB681344FB6000BFFFF7E0FFFE
:100A5C000246BB68D31AFA689A42F7D800BF00BFA7
:100A6C001037BD4680BD00BF0800002080B586B0A1
:100A7C0000AF78600023FB7500233B610023BB6053
:100A8C000023FB607B68002B01D10123BEE07B6857
:100A9C009B68002B7B689B6A002B09D17B6800222A
:100AAC00DA627B68002283F824207868FFF73EFE28
:100ABC00786800F0F1FB0346FB757B689B6A03F0DA
:100ACC001003002B40F09980FB7D002B40F09580AB
:100ADC007B689B6A23F4885323F0020343F00202E1
:100AEC007B689A627B685A687B68DB691A437B680F
:100AFC001B7B5B001343BA681343BB607B689B682A
:100B0C00B3F5807F03D07B689B68012B02D14FF437
:100B1C00807300E000233A6913433B617B681B7DC3
:100B2C00012B19D17B681B7B002B09D17B689B693E
:100B3C00013B5A033B69134343F400633B610BE0F5
:100B4C007B689B6A43F020027B689A627B68DB6A55
:100B5C0043F001027B68DA627B681B685B6823F4F4
:100B6C0069417B681B683A690A435A607B681B6859
:100B7C009A68284B13407A681268B9680B439360E3
:100B8C007B689B68B3F5807F03D07B689B68012BE7
:100B9C0004D17B681B69013B1B05FB607B681B68F0
:100BAC00DB6A23F470017B681B68FA680A43DA621B
:100BBC007B681B689A68184B1340BA689A420BD131
:100BCC007B680022DA627B689B6A23F0030343F0A4
:100BDC0001027B689A6218E07B689B6A23F012031F
:100BEC0043F010027B689A627B68DB6A43F0010277
:100BFC007B68DA620123FB7507E07B689B6A43F034
:100C0C0010027B689A620123FB75FB7D184618372E
:100C1C00BD4680BDFDF7E1FFFE0E1FFF80B584B021
:100C2C0000AF78600023FB737B6893F82430012BB2
:100C3C0001D1022398E07B68012283F82420786894
:100C4C0000F0D0FA0346FB73FB7B002B40F087804F
:100C5C007B689B6A23F4407323F0010343F4807296
:100C6C007B689A627B681B68414A934205D1414B71
:100C7C005B6803F47023002B15D17B689B6A23F40B
:100C8C0080127B689A627B681B685B6803F48063E4
:100C9C00002B26D07B689B6A23F4405343F480528C
:100CAC007B689A621DE07B689B6A43F480127B68C8
:100CBC009A627B681B682F4A934204D07B681B683E
:100CCC002B4A93420DD12B4B5B6803F48063002BB2
:100CDC0007D07B689B6A23F4405343F480527B68B3
:100CEC009A627B689B6A03F48053002B06D07B6866
:100CFC00DB6A23F006027B68DA6202E07B68002282
:100D0C00DA627B68002283F824207B681B686FF012
:100D1C0002021A607B681B689B6803F46023B3F5BE
:100D2C00602F13D17B681B68114A934205D1114B7C
:100D3C005B6803F47023002B08D17B681B689A68EE
:100D4C007B681B6842F4A0029A600CE07B681B680D
:100D5C009A687B681B6842F480129A6003E07B6897
:100D6C00002283F82420FB7B18461037BD4680BD3B
:100D7C00002801400024014080B584B000AF7860A9
:100D8C000023FB737B6893F82430012B01D10223E1
:100D9C001AE07B68012283F82420786800F07CFA42
:100DAC000346FB73FB7B002B09D17B689B6A23F406
:100DBC00885323F0010343F001027B689A627B683D
:100DCC00002283F82420FB7B18461037BD4680BDDB
:100DDC0090B587B000AF7860396000237B61002349
:100DEC00FB6000233B61FFF713FE78617B681B6897
:100DFC009B6803F48073002B0BD07B689B6A43F0D9
:100E0C0020027B689A627B68002283F824200123ED
:100E1C00D3E07B681B685B6803F48073002B31D1D3
:100E2C007B681B68DB6A03F47003002B2AD121E07A
:100E3C003B68B3F1FF3F1DD03B68002B07D0FFF799
:100E4C00E7FD02467B69D31A3A689A4212D27B6854
:100E5C001B681B6803F00203002B0BD17B689B6A99
:100E6C0043F004027B689A627B68002283F824209A
:100E7C000323A2E07B681B681B6803F00203002BB2
:100E8C00D6D070E04F4B1C68022001F0BFFD03462A
:100E9C00B4FBF3F27B681B6819694B4B0B40002BBE
:100EAC0018D17B681B68D968484B0B40002B11D1BB
:100EBC007B681B681969464B0B40002B08D17B687B
:100ECC001B68D968434B0B40002B01D1142320E045
:100EDC0029231EE07B681B6819693D4B0B40002BD6
:100EEC0006D17B681B68D9683A4B0B40002B0DD0A0
:100EFC007B681B681969384B0B40002B08D17B6849
:100F0C001B68D968344B0B40002B01D1542300E0F3
:100F1C00FC2302FB03F33B6121E03B68B3F1FF3F91
:100F2C001AD03B68002B07D0FFF772FD02467B6995
:100F3C00D31A3A689A420FD2FB683A699A420BD993
:100F4C007B689B6A43F004027B689A627B68002290
:100F5C0083F82420032330E0FB680133FB60FB683B
:100F6C003A699A42D9D87B681B686FF012021A60F2
:100F7C007B689B6A43F400727B689A627B681B688F
:100F8C009B6803F46023B3F5602F15D17B681B7B42
:100F9C00002B11D17B689B6A23F480727B689A6268
:100FAC007B689B6A03F48053002B05D17B689B6A9A
:100FBC0043F001027B689A62002318461C37BD4639
:100FCC0090BD00BF000000202449922424499200C7
:100FDC0092244912922449004992240080B483B08F
:100FEC0000AF78607B681B68DB6C18460C37BD461D
:100FFC0080BC704780B485B000AF78603960002346
:10100C00FB730023BB607B6893F82430012B01D168
:10101C000223DCE07B68012283F824203B685B68B8
:10102C00062B1CD87B681B68596B3B685A681346A7
:10103C009B001344053B1F2202FA03F3DB431940C8
:10104C003B6818683B685A6813469B001344053B81
:10105C0000FA03F27B681B680A435A633CE03B6866
:10106C005B680C2B1CD87B681B68196B3B685A6837
:10107C0013469B001344233B1F2202FA03F3DB436A
:10108C0019403B6818683B685A6813469B00134428
:10109C00233B00FA03F27B681B680A431A631BE0CC
:1010AC007B681B68D96A3B685A6813469B001344DB
:1010BC00413B1F2202FA03F3DB4319403B681868DB
:1010CC003B685A6813469B001344413B00FA03F2F9
:1010DC007B681B680A43DA623B681B68092B1CD9C6
:1010EC007B681B68D9683B681A6813465B0013441D
:1010FC001E3B072202FA03F3DB4319403B68986856
:10110C003B681A6813465B0013441E3B00FA03F25B
:10111C007B681B680A43DA6019E07B681B681969F5
:10112C003B681A6813465B001344072202FA03F368
:10113C00DB4319403B6898683B681A6813465B00B0
:10114C00134400FA03F27B681B680A431A613B687C
:10115C001B68102B03D03B681B68112B32D17B68AA
:10116C001B681D4A934225D17B681B689B6803F45E
:10117C000003002B26D17B681B689A687B681B6870
:10118C0042F400029A603B681B68102B1AD1134B77
:10119C001B68134AA2FB03239A0C13469B001344AF
:1011AC005B00BB6002E0BB68013BBB60BB68002B13
:1011BC00F9D107E07B689B6A43F020027B689A6256
:1011CC000123FB737B68002283F82420FB7B1846E9
:1011DC001437BD4680BC704700240140000000203D
:1011EC0083DE1B4380B584B000AF78600023FB60C6
:1011FC000023BB607B681B689B6803F00103012B19
:10120C0040D07B681B689A687B681B6842F00102BF
:10121C009A601F4B1B681F4AA2FB03239B0CBB60ED
:10122C0002E0BB68013BBB60BB68002BF9D1FFF748
:10123C00EFFBF8601FE0FFF7EBFB0246FB68D31AED
:10124C00022B18D97B681B689B6803F00103012BE8
:10125C0011D07B689B6A43F010027B689A627B68B2
:10126C00DB6A43F001027B68DA627B68002283F858
:10127C002420012307E07B681B689B6803F00103B3
:10128C00012BD8D1002318461037BD4680BD00BFB6
:10129C000000002083DE1B4380B584B000AF786073
:1012AC000023FB607B681B689B6803F00103012B28
:1012BC002ED17B681B689A687B681B6822F0010240
:1012CC009A60FFF7A5FBF8601BE0FFF7A1FB024655
:1012DC00FB68D31A022B14D97B681B689B6803F03C
:1012EC000103012B0DD17B689B6A43F010027B68D4
:1012FC009A627B68DB6A43F001027B68DA62012345
:10130C0007E07B681B689B6803F00103012BDCD0B2
:10131C00002318461037BD4680BD000080B485B050
:10132C0000AF78607B6803F00703FB600C4BDB6855
:10133C00BB60BA684FF6FF031340BB60FB681A0230
:10134C00BB68134343F0BF6343F40033BB60044AF0
:10135C00BB68D36000BF1437BD4680BC704700BF6C
:10136C0000ED00E080B400AF044BDB681B0A03F017
:10137C0007031846BD4680BC704700BF00ED00E077
:10138C0080B483B000AF03463960FB7197F9073026
:10139C00002B0ADB3B68DAB20C4997F907301201D3
:1013AC00D2B20B4483F800230AE03B68DAB2084956
:1013BC00FB7903F00F03043B1201D2B20B441A76F3
:1013CC0000BF0C37BD4680BC704700BF00E100E099
:1013DC0000ED00E080B489B000AFF860B9607A60CD
:1013EC00FB6803F00703FB61FB69C3F10703042BE4
:1013FC0028BF0423BB61FB690433062B02D9FB69AC
:10140C00033B00E000237B614FF0FF32BB6902FA23
:10141C0003F3DA43BB681A407B699A404FF0FF3103
:10142C007B6901FA03F3D9437B680B4013431846DD
:10143C002437BD4680BC704780B582B000AF786061
:10144C007B68013BB3F1807F01D301230FE00A4A93
:10145C007B68013B53600F214FF0FF30FFF790FF8B
:10146C00054B00229A60044B07221A600023184691
:10147C000837BD4680BD00BF10E000E080B582B0EB
:10148C0000AF78607868FFF749FF00BF0837BD46AA
:10149C0080BD80B586B000AF0346B9607A60FB733F
:1014AC0000237B61FFF75EFF78617A68B968786921
:1014BC00FFF790FF024697F90F3011461846FFF7D9
:1014CC005FFF00BF1837BD4680BD80B582B000AF4E
:1014DC0078607868FFF7B0FF034618460837BD46BA
:1014EC0080BD000080B48BB000AF78603960002301
:1014FC007B6200233B6248E101227B6A02FA03F320
:10150C00FB613B681B68FA691340BB61BA69FB69F4
:10151C009A4240F037813B685B68A34A93425ED0A5
:10152C00A14A934275D8A14A934258D09F4A9342FC
:10153C006FD89F4A934252D09D4A934269D89D4A94
:10154C0093424CD09B4A934263D89B4A934246D0D9
:10155C00994A93425DD8122B2AD8122B59D801A242
:10156C0052F823F0EB150008C5150008D715000834
:10157C00191600081F1600081F1600081F16000871
:10158C001F1600081F1600081F1600081F1600085B
:10159C001F1600081F1600081F1600081F1600084B
:1015AC001F1600081F160008CD150008E1150008CD
:1015BC00824A934213D02CE03B68DB683B6229E003
:1015CC003B68DB6804333B6224E03B68DB68083330
:1015DC003B621FE03B68DB680C333B621AE03B6804
:1015EC009B68002B02D104233B6213E03B689B6891
:1015FC00012B05D108233B627B68FA691A6109E06B
:10160C0008233B627B68FA695A6103E000233B6262
:10161C0000E000BFBB69FF2B01D87B6801E07B6851
:10162C0004337B61BB69FF2B02D87B6A9B0002E011
:10163C007B6A083B9B003B617B691A680F213B6905
:10164C0001FA03F3DB431A40396A3B6901FA03F3ED
:10165C001A437B691A603B685B6803F08053002B6C
:10166C0000F09080564B9B69554A43F001039361FF
:10167C00534B9B6903F00103BB60BB68514A7B6A07
:10168C009B08023352F82330FB607B6A03F00303A0
:10169C009B000F2202FA03F3DB43FA681340FB6052
:1016AC007B68494A93420DD07B68484A934207D0E5
:1016BC007B68474A934201D1022304E0032302E0F2
:1016CC00012300E000237A6A02F0030292009340A7
:1016DC00FA681343FB603B497B6A9B080233FA6848
:1016EC0041F823203B685B6803F48033002B06D061
:1016FC00384B1A683749BB6913430B6006E0354B0E
:10170C001A68BB69DB43334913400B603B685B6869
:10171C0003F40033002B06D02E4B5A682D49BB69BD
:10172C0013434B6006E02B4B5A68BB69DB432949DA
:10173C0013404B603B685B6803F48013002B06D0AE
:10174C00244B9A682349BB6913438B6006E0214BF9
:10175C009A68BB69DB431F4913408B603B685B682D
:10176C0003F40013002B06D01A4BDA681949BB6935
:10177C001343CB6006E0174BDA68BB69DB431549B2
:10178C001340CB607B6A01337B623B681A687B6ACF
:10179C0022FA03F3002B7FF4AFAE00BF00BF2C374F
:1017AC00BD4680BC704700BF0000321000003110F5
:1017BC000000221000002110000012100000111077
:1017CC00001002400000014000080140000C0140E4
:1017DC00001001400004014080B584B000AF786077
:1017EC007B68002B01D101232BE17B6893F83D3002
:1017FC00DBB2002B06D17B68002283F83C20786892
:10180C00FEF7D0FF7B68242283F83D207B681B68A1
:10181C001A687B681B6822F001021A607B681B68DF
:10182C001A687B681B6842F400421A607B681B686C
:10183C001A687B681B6822F400421A6000F0EAFF09
:10184C00F8607B685B68814A934207D8FB68804AE2
:10185C00934294BF01230023DBB206E0FB687D4A70
:10186C00934294BF01230023DBB2002B01D0012350
:10187C00E7E0FB68784AA2FB03239B0CBB607B6808
:10188C001B685B6823F03F017B681B68BA680A43DE
:10189C005A607B681B681B6A23F03F017B685B689E
:1018AC006A4A934202D8BB68013309E0BB684FF423
:1018BC00967202FB03F3694AA2FB03239B090133D3
:1018CC007A6812680B4313627B681B68DB6923F42C
:1018DC004F4222F0FF027B685B685C498B4219D84F
:1018EC00FB68591E7B685B685B00B1FBF3F3591C0A
:1018FC0040F6FC730B40002B0AD0FB68591E7B682A
:10190C005B685B00B1FBF3F30133C3F30B0351E0F2
:10191C0004234FE07B689B68002B11D1FB68581E99
:10192C007B6859680B465B000B44B0FBF3F3013347
:10193C00C3F30B03002B0CBF01230023DBB212E01B
:10194C00FB68581E7B6859680B469B000B4499003A
:10195C000B44B0FBF3F30133C3F30B03002B0CBFAD
:10196C0001230023DBB2002B01D0012322E07B6892
:10197C009B68002B0ED1FB68581E7B6859680B4680
:10198C005B000B44B0FBF3F30133C3F30B0343F4E1
:10199C0000430FE0FB68581E7B6859680B469B00A0
:1019AC000B4499000B44B0FBF3F30133C3F30B036B
:1019BC0043F44043796809681343CB617B681B6827
:1019CC001B6823F0C0017B68DA697B681B6A1A43C9
:1019DC007B681B680A431A607B681B689B6823F44E
:1019EC00034323F0FF037A6811697A68D2681143C4
:1019FC007A6812680B4393607B681B68DB6823F082
:101A0C00FF017B685A697B689B691A437B681B687A
:101A1C000A43DA607B681B681A687B681B6842F0B3
:101A2C0001021A607B6800221A647B68202283F80A
:101A3C003D207B6800221A637B68002283F83E20DD
:101A4C00002318461037BD4680BD00BFA08601009C
:101A5C007F841E00FF083D0083DE1B43D34D6210C4
:101A6C0080B588B002AFF8607A601A460B467B816D
:101A7C0013463B81FEF7CCFF7861FB6893F83D3051
:101A8C00DBB2202B40F0E0807B690093192301220C
:101A9C007049F86800F064F90346002B01D002236A
:101AAC00D3E0FB6893F83C30012B01D10223CCE04E
:101ABC00FB68012283F83C20FB681B681B6803F061
:101ACC000103012B07D0FB681B681A68FB681B68B5
:101ADC0042F001021A60FB681B681A68FB681B68FD
:101AEC0022F400621A60FB68212283F83D20FB6817
:101AFC00102283F83E20FB6800221A64FB687A6887
:101B0C005A62FB683A895A85FB685B8D9AB2FB680E
:101B1C001A85FB68504ADA6279897B693A6AF868F7
:101B2C0000F09CF80346002B01D001238DE000232C
:101B3C003B61FB681B685B693B61FB681B689B69CD
:101B4C003B613B6966E07A69396AF86800F0DEF956
:101B5C000346002B0DD0FB681B6C042B07D1FB68D4
:101B6C001B681A68FB681B6842F400721A60012338
:101B7C006BE0FB685B6A1A78FB681B681A61FB6890
:101B8C005B6A5A1CFB685A62FB685B8D9BB2013B1B
:101B9C009AB2FB685A85FB681B8D013B9AB2FB68B5
:101BAC001A85FB681B685B6903F00403042B1BD1CB
:101BBC00FB681B8D002B17D0FB685B6A1A78FB68DF
:101BCC001B681A61FB685B6A5A1CFB685A62FB68EB
:101BDC005B8D9BB2013B9AB2FB685A85FB681B8DEF
:101BEC00013B9AB2FB681A857A69396AF86800F089
:101BFC00CEF90346002B0DD0FB681B6C042B07D1D0
:101C0C00FB681B681A68FB681B6842F400721A6058
:101C1C0001231AE0FB681B8D002B94D1FB681B6819
:101C2C001A68FB681B6842F400721A60FB68202279
:101C3C0083F83D20FB68002283F83E20FB680022DD
:101C4C0083F83C20002300E0022318461837BD46D9
:101C5C0080BD00BF020010000000FFFF80B588B0FF
:101C6C0002AFF8607A603B600B467B81FB68DB6AF5
:101C7C007B617B69082B06D07B69012B03D07B69C8
:101C8C0013F5803F08D1FB681B681A68FB681B685A
:101C9C0042F480721A600BE0FB681B6B122B07D1AD
:101CAC00FB681B681A68FB681B6842F480721A6038
:101CBC003B6800937B6800224FF00111F86800F03C
:101CCC004FF80346002B0DD0FB681B681B6803F410
:101CDC008073B3F5807F03D1FB684FF400721A64F4
:101CEC00032335E0FB681B69B3F5804F08D17B8972
:101CFC00DBB21A46FB681B6802F0FE021A611BE09D
:101D0C007B89DB11DBB203F00603DBB263F00F035C
:101D1C00DAB2FB681B681A613B687A680E49F8688E
:101D2C0000F075F80346002B01D0012310E07B89ED
:101D3C00DAB2FB681B681A613B687A680749F86875
:101D4C0000F065F80346002B01D0012300E00023CE
:101D5C0018461837BD4680BD08000100020001007E
:101D6C0080B584B000AFF860B9603B601346FB717E
:101D7C0025E03B68B3F1FF3F21D0FEF749FE024658
:101D8C00BB69D31A3A689A4202D33B68002B16D12E
:101D9C00FB6800221A63FB68202283F83D20FB6855
:101DAC00002283F83E20FB681B6C43F02002FB688A
:101DBC001A64FB68002283F83C20012323E0BB68F3
:101DCC001B0CDBB2012B0DD1FB681B685B69DA4382
:101DDC00BB6813409BB2002B0CBF01230023DBB26A
:101DEC001A460CE0FB681B689B69DA43BB6813401E
:101DFC009BB2002B0CBF01230023DBB21A46FB79EC
:101E0C009A42B6D0002318461037BD4680BD80B527
:101E1C0084B000AFF860B9607A603B6051E0FB6859
:101E2C001B685B6903F48063B3F5806F23D1FB6897
:101E3C001B681A68FB681B6842F400721A60FB6826
:101E4C001B686FF480625A61FB6800221A63FB689E
:101E5C00202283F83D20FB68002283F83E20FB689B
:101E6C001B6C43F00402FB681A64FB68002283F8C5
:101E7C003C20012346E07B68B3F1FF3F21D0FEF705
:101E8C00C7FD02463B68D31A7A689A4202D37B6834
:101E9C00002B16D1FB6800221A63FB68202283F802
:101EAC003D20FB68002283F83E20FB681B6C43F04E
:101EBC002002FB681A64FB68002283F83C20012393
:101ECC0020E0BB681B0CDBB2012B0CD1FB681B6840
:101EDC005B69DA43BB6813409BB2002B14BF012330
:101EEC000023DBB20BE0FB681B689B69DA43BB6821
:101EFC0013409BB2002B14BF01230023DBB2002B39
:101F0C008DD1002318461037BD4680BD80B584B0F6
:101F1C0000AFF860B9607A602DE0F86800F078F8EE
:101F2C000346002B01D001232DE0BB68B3F1FF3F2A
:101F3C0021D0FEF76DFD02467B68D31ABA689A422F
:101F4C0002D3BB68002B16D1FB6800221A63FB6816
:101F5C00202283F83D20FB68002283F83E20FB689A
:101F6C001B6C43F02002FB681A64FB68002283F8A8
:101F7C003C20012307E0FB681B685B6903F08003CE
:101F8C00802BCAD1002318461037BD4680BD80B5C2
:101F9C0084B000AFF860B9607A602DE0F86800F0AA
:101FAC0037F80346002B01D001232DE0BB68B3F1B9
:101FBC00FF3F21D0FEF72CFD02467B68D31ABA688E
:101FCC009A4202D3BB68002B16D1FB6800221A631D
:101FDC00FB68202283F83D20FB68002283F83E201A
:101FEC00FB681B6C43F02002FB681A64FB68002240
:101FFC0083F83C20012307E0FB681B685B6903F056
:10200C000403042BCAD1002318461037BD4680BDEB
:10201C0080B483B000AF78607B681B685B6903F4A5
:10202C008063B3F5806F1BD17B681B686FF4806293
:10203C005A617B6800221A637B68202283F83D205A
:10204C007B68002283F83E207B681B6C43F0040203
:10205C007B681A647B68002283F83C20012300E033
:10206C00002318460C37BD4680BC704780B586B03F
:10207C0000AF78607B68002B01D101236CE27B6898
:10208C001B6803F00103002B00F08780924B5B6808
:10209C0003F00C03042B0CD08F4B5B6803F00C0388
:1020AC00082B12D18C4B5B6803F48033B3F5803F63
:1020BC000BD1894B1B6803F40033002B6CD07B686D
:1020CC005B68002B68D1012346E27B685B68B3F543
:1020DC00803F06D1804B1B687F4A43F480331360EA
:1020EC002EE07B685B68002B0CD17B4B1B687A4A1B
:1020FC0023F480331360784B1B68774A23F48023D6
:10210C0013601DE07B685B68B3F5A02F0CD1724B9C
:10211C001B68714A43F4802313606F4B1B686E4A33
:10212C0043F4803313600BE06B4B1B686A4A23F457
:10213C0080331360684B1B68674A23F48023136059
:10214C007B685B68002B13D0FEF762FC386108E0FB
:10215C00FEF75EFC02463B69D31A642B01D90323BC
:10216C00FAE15D4B1B6803F40033002BF0D014E054
:10217C00FEF74EFC386108E0FEF74AFC02463B696C
:10218C00D31A642B01D90323E6E1534B1B6803F4E8
:10219C000033002BF0D100E000BF7B681B6803F01C
:1021AC000203002B63D04C4B5B6803F00C03002B39
:1021BC000BD0494B5B6803F00C03082B1CD1464B2E
:1021CC005B6803F48033002B16D1434B1B6803F080
:1021DC000203002B05D07B681B69012B01D0012366
:1021EC00BAE13D4B1B6823F0F8027B685B69DB00AE
:1021FC00394913430B603AE07B681B69002B20D0F4
:10220C00364B01221A60FEF703FC386108E0FEF73A
:10221C00FFFB02463B69D31A022B01D903239BE136
:10222C002D4B1B6803F00203002BF0D02A4B1B68CC
:10223C0023F0F8027B685B69DB00274913430B60D2
:10224C0015E0264B00221A60FEF7E2FB386108E02D
:10225C00FEF7DEFB02463B69D31A022B01D903239E
:10226C007AE11D4B1B6803F00203002BF0D17B6855
:10227C001B6803F00803002B3AD07B689B69002B8A
:10228C0019D0174B01221A60FEF7C2FB386108E027
:10229C00FEF7BEFB02463B69D31A022B01D903237E
:1022AC005AE10D4B5B6A03F00203002BF0D00120C6
:1022BC0000F0D8FA1CE00A4B00221A60FEF7A8FBCB
:1022CC0038610FE0FEF7A4FB02463B69D31A022BE0
:1022DC0008D9032340E100BF001002400000424235
:1022EC00800442429E4B5B6A03F00203002BE9D14F
:1022FC007B681B6803F00403002B00F0A68000230E
:10230C00FB75974BDB6903F08053002B0DD1944B7D
:10231C00DB69934A43F08053D361914BDB6903F043
:10232C008053BB60BB680123FB758E4B1B6803F4A9
:10233C008073002B18D18B4B1B688A4A43F4807333
:10234C001360FEF765FB386108E0FEF761FB02469F
:10235C003B69D31A642B01D90323FDE0814B1B6825
:10236C0003F48073002BF0D07B68DB68012B06D163
:10237C007B4B1B6A7A4A43F0010313622DE07B68A6
:10238C00DB68002B0CD1764B1B6A754A23F00103DA
:10239C001362734B1B6A724A23F0040313621CE032
:1023AC007B68DB68052B0CD16D4B1B6A6C4A43F0C8
:1023BC00040313626A4B1B6A694A43F001031362FC
:1023CC000BE0674B1B6A664A23F001031362644BF4
:1023DC001B6A634A23F0040313627B68DB68002BDF
:1023EC0015D0FEF715FB38610AE0FEF711FB02462B
:1023FC003B69D31A41F28832934201D90323ABE0F3
:10240C00574B1B6A03F00203002BEED014E0FEF7CF
:10241C00FFFA38610AE0FEF7FBFA02463B69D31A71
:10242C0041F28832934201D9032395E04C4B1B6A4D
:10243C0003F00203002BEED1FB7D012B05D1484BA1
:10244C00DB69474A23F08053D3617B68DB69002B3F
:10245C0000F08180424B5B6803F00C03082B61D0C9
:10246C007B68DB69022B46D13F4B00221A60FEF7DA
:10247C00CFFA386108E0FEF7CBFA02463B69D31A73
:10248C00022B01D9032367E0354B1B6803F0007363
:10249C00002BF0D17B681B6AB3F5803F08D1304B21
:1024AC005B6823F400327B689B682D4913434B60B7
:1024BC002B4B5B6823F474127B68196A7B685B6A2C
:1024CC000B43274913434B60274B01221A60FEF73D
:1024DC009FFA386108E0FEF79BFA02463B69D31A73
:1024EC00022B01D9032337E01D4B1B6803F000734B
:1024FC00002BF0D02FE01C4B00221A60FEF788FA5C
:10250C00386108E0FEF784FA02463B69D31A022BC5
:10251C0001D9032320E0124B1B6803F00073002B3E
:10252C00F0D118E07B68DB69012B01D1012313E0AA
:10253C000B4B5B68FB60FB6803F480327B681B6AA7
:10254C009A4206D1FB6803F470127B685B6A9A426C
:10255C0001D0012300E0002318461837BD4680BD8A
:10256C0000100240007000406000424280B584B010
:10257C0000AF786039607B68002B01D10123D0E07B
:10258C006A4B1B6803F007033A689A4210D9674BF1
:10259C001B6823F0070265493B6813430B60634BD0
:1025AC001B6803F007033A689A4201D00123B8E094
:1025BC007B681B6803F00203002B20D07B681B6830
:1025CC0003F00403002B05D0594B5B68584A43F4C5
:1025DC00E06353607B681B6803F00803002B05D095
:1025EC00534B5B68524A43F460535360504B5B68E7
:1025FC0023F0F0027B689B684D4913434B607B686A
:10260C001B6803F00103002B40D07B685B68012B37
:10261C0007D1474B1B6803F40033002B15D1012362
:10262C007FE07B685B68022B07D1414B1B6803F092
:10263C000073002B09D1012373E03D4B1B6803F0A1
:10264C000203002B01D101236BE0394B5B6823F0B3
:10265C0003027B685B68364913434B60FEF7D8F97D
:10266C00F8600AE0FEF7D4F90246FB68D31A41F28F
:10267C008832934201D9032353E02D4B5B6803F05E
:10268C000C027B685B689B009A42EBD1274B1B6862
:10269C0003F007033A689A4210D2244B1B6823F0CC
:1026AC00070222493B6813430B60204B1B6803F065
:1026BC0007033A689A4201D0012332E07B681B6819
:1026CC0003F00403002B08D0194B5B6823F4E06281
:1026DC007B68DB68164913434B607B681B6803F00F
:1026EC000803002B09D0124B5B6823F460527B6803
:1026FC001B69DB000E4913434B6000F021F80246C6
:10270C000B4B5B681B0903F00F030A49CB5C22FAE5
:10271C0003F3094A1360094B1B681846FEF736F998
:10272C00002318461037BD4680BD00BF0020024074
:10273C0000100240043100080000002004000020BA
:10274C0090B48AB000AF2A4B3C1D0FCB84E80F002D
:10275C0040F201233B800023FB610023BB6100237B
:10276C007B6200237B6100233B62224B5B68FB6135
:10277C00FB6903F00C03042B02D0082B03D02DE0D3
:10278C001D4B3B622DE0FB699B0C03F00F0307F123
:10279C002802134413F8243C7B61FB6903F4803357
:1027AC00002B13D0134B5B685B0C03F0010307F198
:1027BC002802134413F8283CBB617B690E4A02FBC8
:1027CC0003F2BB69B2FBF3F37B6204E07B690B4A57
:1027DC0002FB03F37B627B6A3B6202E0064B3B62CB
:1027EC0000BF3B6A18462837BD4690BC704700BFF7
:1027FC00E43000080010024000127A0000093D008D
:10280C0080B400AF024B1B681846BD4680BC7047B5
:10281C000000002080B500AFFFF7F2FF0246054B29
:10282C005B681B0A03F007030349CB5C22FA03F332
:10283C00184680BD001002401431000880B500AF6E
:10284C00FFF7DEFF0246054B5B68DB0A03F007036C
:10285C000349CB5C22FA03F3184680BD00100240FA
:10286C001431000880B485B000AF78600A4B1B6847
:10287C000A4AA2FB03235B0A7A6802FB03F3FB60A0
:10288C0000BFFB685A1EFA60002BF9D100BF00BFD5
:10289C001437BD4680BC704700000020D34D621039
:1028AC0080B586B000AF786000233B610023FB60ED
:1028BC007B681B6803F00103002B7DD00023FB75A4
:1028CC004F4BDB6903F08053002B0DD14C4BDB6974
:1028DC004B4A43F08053D361494BDB6903F080537F
:1028EC00BB60BB680123FB75464B1B6803F480730C
:1028FC00002B18D1434B1B68424A43F4807313607E
:10290C00FEF786F8386108E0FEF782F802463B696C
:10291C00D31A642B01D903236DE03A4B1B6803F4E3
:10292C008073002BF0D0364B1B6A03F44073FB60B2
:10293C00FB68002B2ED07B685B6803F44073FA684D
:10294C009A4227D02E4B1B6A23F44073FB602E4B0C
:10295C0001221A602C4B00221A60294AFB68136270
:10296C00FB6803F00103002B14D0FEF751F838611B
:10297C000AE0FEF74DF802463B69D31A41F2883261
:10298C00934201D9032336E01D4B1B6A03F002036B
:10299C00002BEED01A4B1B6A23F440727B685B68E9
:1029AC00174913430B62FB7D012B05D1144BDB69DB
:1029BC00134A23F08053D3617B681B6803F0020336
:1029CC00002B08D00E4B5B6823F440427B689B685D
:1029DC000B4913434B607B681B6803F01003002BFF
:1029EC0008D0074B5B6823F480027B68DB680449E2
:1029FC0013434B60002318461837BD4680BD00BFFB
:102A0C0000100240007000404004424290B58DB06E
:102A1C0000AF78605A4B07F10C040FCB84E80F0021
:102A2C0040F201233B8100237B620023FB620023E5
:102A3C003B620023FB610023BB627B68102B0AD036
:102A4C007B68102B00F291807B68012B4CD07B684B
:102A5C00022B7CD089E04B4B5B68FB61494B1B68BC
:102A6C0003F08073002B00F08280FB699B0C03F059
:102A7C000F0307F13002134413F8243C3B62FB694B
:102A8C0003F48033002B18D03E4B5B685B0C03F0D7
:102A9C00010307F13002134413F8283C7B62FB69F5
:102AAC0003F48033002B0DD0374A7B6AB2FBF3F270
:102ABC003B6A02FB03F3FB6204E03B6A334A02FB12
:102ACC0003F3FB622F4B5B6803F48003B3F5800FB9
:102ADC0002D1FB6ABB624AE0FB6A5B002C4AA2FB98
:102AEC0003235B08BB6242E0264B1B6AFB61FB695C
:102AFC0003F44073B3F5807F08D1FB6903F0020344
:102B0C00002B03D04FF40043BB621FE0FB6903F4BE
:102B1C004073B3F5007F09D11A4B5B6A03F00203D3
:102B2C00002B03D049F64043BB620FE0FB6903F472
:102B3C004073B3F5407F1CD1124B1B6803F4003378
:102B4C00002B16D04FF22443BB6212E011E0FFF7CA
:102B5C0075FE02460B4B5B689B0B03F003030133C2
:102B6C005B00B2FBF3F3BB6204E000BF02E000BF0A
:102B7C0000E000BFBB6A18463437BD4690BD00BFAD
:102B8C00F43000080010024000127A0000093D00E9
:102B9C00ABAAAAAA80B582B000AF78607B68002B84
:102BAC0001D101233FE07B6893F83D30DBB2002B71
:102BBC0006D17B68002283F83C207868FDF730FE54
:102BCC007B68242283F83D207B681B68DA687B686D
:102BDC001B6822F40052DA60786800F0A7F97B6871
:102BEC001B681A697B681B6822F490421A617B6827
:102BFC001B685A697B681B6822F02A025A617B6841
:102C0C001B68DA687B681B6842F40052DA607B68E8
:102C1C0000221A647B68202283F83D207B682022E6
:102C2C0083F83E20002318460837BD4680BD80B58A
:102C3C008AB002AFF860B9603B601346FB8000239A
:102C4C007B61FB6893F83D30DBB2202B7CD1BB68F9
:102C5C00002B02D0FB88002B01D1012375E0FB680F
:102C6C0093F83C30012B01D102236EE0FB6801226A
:102C7C0083F83C20FB6800221A64FB68212283F84D
:102C8C003D20FDF7C5FE7861FB68FA889A84FB68E5
:102C9C00FA88DA84FB689B68B3F5805F08D1FB681F
:102CAC001B69002B04D10023FB61BB68BB6103E0F3
:102CBC00BB68FB610023BB61FB68002283F83C20EE
:102CCC002AE03B6800937B6900228021F86800F0C1
:102CDC00E2F80346002B01D0032336E0FB69002BFE
:102CEC000BD1BB691B881A46FB681B68C2F3080230
:102CFC005A60BB690233BB6107E0FB691A78FB6859
:102D0C001B685A60FB690133FB61FB68DB8C9BB26F
:102D1C00013B9AB2FB68DA84FB68DB8C9BB2002B1C
:102D2C00CFD13B6800937B6900224021F86800F00A
:102D3C00B2F80346002B01D0032306E0FB682022E7
:102D4C0083F83D20002300E0022318462037BD46BF
:102D5C0080BD80B58AB002AFF860B9603B601346A5
:102D6C00FB8000237B61FB6893F83E30DBB2202BA9
:102D7C0040F08C80BB68002B02D0FB88002B01D16B
:102D8C00012384E0FB6893F83C30012B01D1022332
:102D9C007DE0FB68012283F83C20FB6800221A646A
:102DAC00FB68222283F83E20FB6800221A63FDF7A1
:102DBC002FFE7861FB68FA889A85FB68FA88DA85B9
:102DCC00FB689B68B3F5805F08D1FB681B69002B1F
:102DDC0004D10023FB61BB68BB6103E0BB68FB61F2
:102DEC000023BB61FB68002283F83C2043E03B6876
:102DFC0000937B6900222021F86800F04CF8034610
:102E0C00002B01D0032342E0FB69002B0CD1FB68A3
:102E1C001B685B689BB2C3F308039AB2BB691A8048
:102E2C00BB690233BB611FE0FB689B68B3F5805F35
:102E3C0007D0FB689B68002B0AD1FB681B69002B31
:102E4C0006D1FB681B685B68DAB2FB691A7008E094
:102E5C00FB681B685B68DBB203F07F03DAB2FB69CB
:102E6C001A70FB690133FB61FB68DB8D9BB2013B84
:102E7C009AB2FB68DA85FB68DB8D9BB2002BB6D16E
:102E8C00FB68202283F83E20002300E00223184632
:102E9C002037BD4680BD80B584B000AFF860B96006
:102EAC003B601346FB712CE0BB69B3F1FF3F28D0AC
:102EBC00BB69002B07D0FDF7ABFD02463B68D31A6C
:102ECC00BA699A421DD2FB681B68DA68FB681B68FA
:102EDC0022F4D072DA60FB681B685A69FB681B68C5
:102EEC0022F001025A61FB68202283F83D20FB6826
:102EFC00202283F83E20FB68002283F83C20032329
:102F0C000FE0FB681B681A68BB681340BA689A42EA
:102F1C000CBF01230023DBB21A46FB799A42C3D0C3
:102F2C00002318461037BD4680BD000080B584B024
:102F3C0000AF78607B681B681B6923F440517B6889
:102F4C00DA687B681B680A431A617B689A687B683D
:102F5C001B691A437B685B691343BB607B681B6806
:102F6C00DB6823F4B05323F00C037A681268B96859
:102F7C000B43D3607B681B685B6923F440717B68EF
:102F8C009A697B681B680A435A617B681B682C4AE8
:102F9C00934203D1FFF752FCF86002E0FFF73AFCD2
:102FAC00F860FA6813469B0013449A001A447B6835
:102FBC005B689B00B2FBF3F3224AA2FB03235B0981
:102FCC001901FA6813469B0013449A001A447B6853
:102FDC005B689B00B2FBF3F21A4BA3FB02035B0989
:102FEC00642000FB03F3D31A1B013233154AA2FBF6
:102FFC0003235B0903F0F0031944FA6813469B00A2
:10300C0013449A001A447B685B689B00B2FBF3F292
:10301C000C4BA3FB02035B09642000FB03F3D31AE4
:10302C001B013233074AA2FB03235B0903F00F0297
:10303C007B681B680A449A6000BF1037BD4680BD90
:10304C00003801401F85EB5170B500260C4D0D4C1E
:10305C00641BA410A64209D100F022F800260A4DE8
:10306C000A4C641BA410A64205D170BD55F8043B54
:10307C0098470136EEE755F8043B98470136F2E7DE
:10308C001C3100081C3100081C31000820310008DC
:10309C0003460244934200D1704703F8011BF9E741
:1030AC00F8B500BFF8BC08BC9E467047F8B500BF29
:0830BC00F8BC08BC9E467047F9
:1030C400000000000000000000000000303030303C
:1030D4000D0A00003030303030300D0A000000009E
:1030E40002030405060708090A0B0C0D0E0F101045
:1030F40002030405060708090A0B0C0D0E0F101035
:103104000000000000000000010203040607080993
:083114000000000001020304A9
:04311C003101000875
:043120000D01000895
:0C3124000024F400100000000100000076
:0400000508000921C5
:00000001FF
